:020000040800F2
:1000000000000520AD2200087D1F00087F1F0008AA
:10001000811F0008831F0008851F000800000000E2
:10002000000000000000000000000000818C0008BB
:10003000871F000800000000218D0008858D000842
:10004000FD220008FD220008FD220008FD22000814
:10005000FD220008FD220008FD220008FD22000804
:10006000FD220008FD220008FD220008FD220008F4
:10007000FD220008FD220008FD220008FD220008E4
:10008000FD220008FD220008FD220008FD220008D4
:10009000FD220008FD220008FD220008FD220008C4
:1000A000FD220008FD220008FD220008FD220008B4
:1000B000FD220008FD220008FD220008FD220008A4
:1000C000FD220008FD220008FD220008FD22000894
:1000D000FD220008FD220008FD220008FD22000884
:1000E000FD220008FD220008FD220008FD22000874
:1000F000FD220008FD220008FD220008FD22000864
:10010000FD220008FD220008FD220008FD22000853
:10011000FD220008FD220008891F0008FD220008BA
:10012000FD220008FD220008FD220008FD22000833
:10013000FD220008FD220008FD220008FD22000823
:10014000FD220008FD220008FD220008FD22000813
:10015000FD220008FD220008FD220008FD22000803
:10016000FD220008FD220008FD220008FD220008F3
:10017000FD220008FD220008FD220008000000000A
:10018000FD220008FD220008FD220008FD220008D3
:10019000FD220008FD220008FD220008FD220008C3
:1001A000951F0008FD220008A11F0008FD2200087D
:1001B000FD220008FD220008FD220008FD220008A3
:0801C000FD220008FD220008E9
:1001D00010B5054C237833B9044B13B10448AFF381
:1001E00000800123237010BD900200200000000059
:1001F0003004030808B5034B1BB103490348AFF3B0
:10020000008008BD000000009402002030040308B4
:1002100001F0FF01102A2BDB10F0070F08D010F8B7
:10022000013B013A8B422DD010F0070F42B3F6D1BB
:10023000F0B441EA012141EA014122F007047FF0D4
:1002400000070023F0E80256083C85EA010586EA2B
:10025000010685FA47F5A3FA87F586FA47F6A5FA67
:1002600087F68EB9EED1F0BC01F0FF0102F0070273
:1002700032B110F8013B013A83EA010313B1F8D11E
:100280000020704701387047002D06BF35460338FF
:10029000073815F0010F07D1013015F4807F02BF38
:1002A000013015F4C03F0130F0BC0138704700BF89
:1002B000034613F8012B002AFBD1181A01387047A6
:1002C00081F0004102E000BF83F0004330B54FEA07
:1002D00041044FEA430594EA050F08BF90EA020F74
:1002E0001FBF54EA000C55EA020C7FEA645C7FEA07
:1002F000655C00F0E2804FEA5454D4EB5555B8BF2A
:100300006D420CDD2C4480EA020281EA030382EA9A
:10031000000083EA010180EA020281EA0303362D2C
:1003200088BF30BD11F0004F4FEA01314FF4801CFF
:100330004CEA113102D0404261EB410113F0004F11
:100340004FEA03334CEA133302D0524263EB4303C8
:1003500094EA050F00F0A780A4F10104D5F1200E66
:100360000DDB02FA0EFC22FA05F2801841F10001C1
:1003700003FA0EF2801843FA05F359410EE0A5F195
:1003800020050EF1200E012A03FA0EFC28BF4CF0C6
:10039000020C43FA05F3C01851EBE37101F000457C
:1003A00007D54FF0000EDCF1000C7EEB00006EEB89
:1003B0000101B1F5801F1BD3B1F5001F0CD3490813
:1003C0005FEA30004FEA3C0C04F101044FEA44526A
:1003D00012F5800F80F09A80BCF1004F08BF5FEAF1
:1003E000500C50F1000041EB045141EA050130BDD1
:1003F0005FEA4C0C404141EB0101013C28BFB1F5E3
:10040000801FE9D291F0000F04BF01460020B1FA2D
:1004100081F308BF2033A3F10B03B3F120020CDA00
:100420000C3208DD02F1140CC2F10C0201FA0CF0DE
:1004300021FA02F10CE002F11402D8BFC2F1200C43
:1004400001FA02F120FA0CFCDCBF41EA0C019040F9
:10045000E41AA2BF01EB0451294330BD6FEA040442
:100460001F3C1CDA0C340EDC04F11404C4F120022D
:1004700020FA04F001FA02F340EA030021FA04F33F
:1004800045EA030130BDC4F10C04C4F1200220FA96
:1004900002F001FA04F340EA0300294630BD21FAD4
:1004A00004F0294630BD94F0000F83F4801306BF9A
:1004B00081F480110134013D4EE77FEA645C18BF8E
:1004C0007FEA655C29D094EA050F08BF90EA020F25
:1004D00005D054EA000C04BF1946104630BD91EA1D
:1004E000030F1EBF0021002030BD5FEA545C05D120
:1004F0004000494128BF41F0004130BD14F580045F
:100500003CBF01F5801130BD01F0004545F0FE41D2
:1005100041F470014FF0000030BD7FEA645C1ABF07
:10052000194610467FEA655C1CBF0B46024650EA3E
:10053000013406BF52EA033591EA030F41F400216A
:1005400030BD00BF90F0000F04BF0021704730B5F0
:100550004FF4806404F132044FF000054FF00001C5
:1005600050E700BF90F0000F04BF0021704730B586
:100570004FF4806404F1320410F0004548BF40425B
:100580004FF000013EE700BF42004FEAE2014FEAB0
:1005900031014FEA02701FBF12F07F4393F07F4F8B
:1005A00081F06051704732F07F4208BF704793F08E
:1005B0007F4F04BF41F40021704730B54FF46074A1
:1005C00001F0004521F000411CE700BF50EA0102A4
:1005D00008BF704730B54FF000050AE050EA01024D
:1005E00008BF704730B511F0004502D5404261EBBD
:1005F00041014FF4806404F132045FEA915C3FF4FE
:10060000D8AE4FF003025FEADC0C18BF03325FEA9A
:10061000DC0C18BF033202EBDC02C2F1200300FA4B
:1006200003FC20FA02F001FA03FE40EA0E0021FA70
:1006300002F11444BDE600BF70B54FF0FF0C4CF45E
:10064000E06C1CEA11541DBF1CEA135594EA0C0F10
:1006500095EA0C0F00F0DEF82C4481EA030621EA4B
:100660004C5123EA4C5350EA013518BF52EA033586
:1006700041F4801143F4801338D0A0FB02CE4FF038
:100680000005E1FB02E506F00042E0FB03E54FF068
:100690000006E1FB03569CF0000F18BF4EF0010E60
:1006A000A4F1FF04B6F5007F64F5407404D25FEA5C
:1006B0004E0E6D4146EB060642EAC62141EA55510F
:1006C0004FEAC52040EA5E504FEACE2EB4F1FD0C51
:1006D00088BFBCF5E06F1ED8BEF1004F08BF5FEACF
:1006E000500E50F1000041EB045170BD06F0004681
:1006F00046EA010140EA020081EA0301B4EB5C042E
:10070000C2BFD4EB0C0541EA045170BD41F4801125
:100710004FF0000E013C00F3AB8014F1360FDEBF4A
:10072000002001F0004170BDC4F10004203C35DA26
:100730000C341BDC04F11404C4F1200500FA05F3A9
:1007400020FA04F001FA05F240EA020001F000424A
:1007500021F0004110EBD37021FA04F642EB0601C0
:100760005EEA430E08BF20EAD37070BDC4F10C04EA
:10077000C4F1200500FA04F320FA05F001FA04F2AE
:1007800040EA020001F0004110EBD37041F100019A
:100790005EEA430E08BF20EAD37070BDC4F12005A5
:1007A00000FA05F24EEA020E20FA04F301FA05F20D
:1007B00043EA020321FA04F001F0004121FA04F2B5
:1007C00020EA020000EBD3705EEA430E08BF20EA85
:1007D000D37070BD94F0000F0FD101F000464000BF
:1007E00041EB010111F4801F08BF013CF7D041EA41
:1007F000060195F0000F18BF704703F00046520045
:1008000043EB030313F4801F08BF013DF7D043EA15
:100810000603704794EA0C0F0CEA135518BF95EACB
:100820000C0F0CD050EA410618BF52EA4306D1D152
:1008300081EA030101F000414FF0000070BD50EA71
:10084000410606BF1046194652EA430619D094EAFB
:100850000C0F02D150EA013613D195EA0C0F05D1E5
:1008600052EA03361CBF104619460AD181EA030139
:1008700001F0004141F0FE4141F470014FF00000F1
:1008800070BD41F0FE4141F4780170BD70B54FF08C
:10089000FF0C4CF4E06C1CEA11541DBF1CEA13550C
:1008A00094EA0C0F95EA0C0F00F0A7F8A4EB0504EE
:1008B00081EA030E52EA03354FEA013100F08880E5
:1008C0004FEA03334FF0805545EA131343EA1263AE
:1008D0004FEA022245EA111545EA10654FEA002663
:1008E0000EF000419D4208BF964244F1FD0404F51C
:1008F000407402D25B084FEA3202B61A65EB030578
:100900005B084FEA32024FF480104FF4002CB6EB34
:10091000020E75EB030E22BFB61A754640EA0C00B4
:100920005B084FEA3202B6EB020E75EB030E22BFF4
:10093000B61A754640EA5C005B084FEA3202B6EB35
:10094000020E75EB030E22BFB61A754640EA9C00F4
:100950005B084FEA3202B6EB020E75EB030E22BFC4
:10096000B61A754640EADC0055EA060E18D04FEA82
:10097000051545EA16754FEA06164FEAC30343EA22
:1009800052734FEAC2025FEA1C1CC0D111F4801FEF
:100990000BD141EA00014FF000004FF0004CB6E7E8
:1009A00011F4801F04BF01430020B4F1FD0C88BF87
:1009B000BCF5E06F3FF6AFAEB5EB030C04BFB6EB92
:1009C000020C5FEA500C50F1000041EB045170BD85
:1009D0000EF0004E4EEA113114EB5C04C2BFD4EBB2
:1009E0000C0541EA045170BD41F480114FF0000E36
:1009F000013C90E645EA060E8DE60CEA135594EAB2
:100A00000C0F08BF95EA0C0F3FF43BAF94EA0C0FB4
:100A10000AD150EA01347FF434AF95EA0C0F7FF429
:100A200025AF104619462CE795EA0C0F06D152EA7D
:100A300003353FF4FDAE1046194622E750EA410661
:100A400018BF52EA43067FF4C5AE50EA41047FF472
:100A50000DAF52EA43057FF4EBAE12E74FF0FF3CD7
:100A600006E000BF4FF0010C02E000BF4FF0010CA8
:100A70004DF804CD4FEA410C7FEA6C5C4FEA430C21
:100A800018BF7FEA6C5C1BD001B050EA410C0CBF70
:100A900052EA430C91EA030F02BF90EA020F0020D2
:100AA000704710F1000F91EA030F58BF994208BF39
:100AB00090422CBFD8176FEAE37040F001007047F6
:100AC0004FEA410C7FEA6C5C02D150EA013C07D14D
:100AD0004FEA430C7FEA6C5CD6D152EA033CD3D098
:100AE0005DF8040B704700BF8446104662468C4692
:100AF0001946634600E000BF01B5FFF7B7FF0028C5
:100B000048BF10F1000F01BD4DF808EDFFF7F4FFED
:100B10000CBF012000205DF808FB00BF4DF808ED78
:100B2000FFF7EAFF34BF012000205DF808FB00BF9B
:100B30004DF808EDFFF7E0FF94BF012000205DF8BD
:100B400008FB00BF4DF808EDFFF7CEFF94BF012072
:100B500000205DF808FB00BF4DF808EDFFF7C4FF6B
:100B600034BF012000205DF808FB00BF4FEA410CB4
:100B70007FEA6C5C02D150EA013C0AD14FEA430C97
:100B80007FEA6C5C02D152EA033C02D14FF00000D4
:100B900070474FF0010070474FEA410212F5001212
:100BA00015D211D56FF47873B3EB625212D94FEAB4
:100BB000C12343F0004343EA505311F0004F23FA9E
:100BC00002F018BF404270474FF00000704750EAF3
:100BD000013005D111F0004008BF6FF000407047B0
:100BE0004FF00000704700BF4A0011D212F500120A
:100BF00011D20DD56FF47873B3EB62520ED44FEA75
:100C0000C12343F0004343EA505323FA02F07047F4
:100C10004FF00000704750EA013002D14FF0FF3032
:100C200070474FF0000070474FEA4102B2F1E043D5
:100C300024BFB3F5001CDCF1FE5C0DD901F0004CC3
:100C40004FEAC0024CEA5070B2F1004F40EB830013
:100C500008BF20F00100704711F0804F21D113F13F
:100C60003872BCBF01F00040704741F480114FEA78
:100C70005252C2F11802C2F1200C10FA0CF320FA01
:100C800002F018BF40F001004FEAC1234FEAD3231E
:100C900003FA0CFC40EA0C0023FA02F34FEA430388
:100CA000CCE77FEA625307D150EA01331EBF4FF011
:100CB000FE4040F44000704701F0004040F0FE402C
:100CC00040F40000704700BF53B94AB9002908BF7B
:100CD00000281CBF4FF0FF314FF0FF3000F0A6B9E5
:100CE000ADF1080C6DE904CE00F03CF8DDF804E04D
:100CF000DDE9022304B0704738B500220023044622
:100D00000D46FFF70BFF28B920462946BDE83840BD
:100D100000F00AB8204605F1004100F005F8404215
:100D200061EB410138BD00BFD0B50C4B0022064637
:100D30000F46FFF781FCFFF757FF0446FFF702FC61
:100D4000074B0022FFF778FC02460B463046394637
:100D5000FFF7BAFAFFF748FF2146D0BD0000F03D8B
:100D60000000F0412DE9F047089E0D4604460F466D
:100D7000002B4AD18A42944665D9B2FA82F343B134
:100D800002FA03FCC3F120029F4020FA02F217434B
:100D90009C404FEA1C4E1FFA8CF5B7FBFEF1220C6B
:100DA0000EFB117742EA074201FB05F090420AD997
:100DB0001CEB020201F1FF3780F01C81904240F2EF
:100DC000198102396244121AA4B2B2FBFEF00EFB82
:100DD000102244EA024400FB05F5A5420AD91CEBA7
:100DE000040400F1FF3280F00781A54240F2048143
:100DF0006444023840EA0140641B00211EB1DC401B
:100E00000023C6E90043BDE8F0878B4208D9002ED5
:100E100000F0ED800021C6E900050846BDE8F08736
:100E2000B3FA83F1002949D1AB4202D3824200F2E6
:100E3000F880841A65EB030201201746002EE2D0E9
:100E4000C6E90047DFE702B9FFDEB2FA82F3002B02
:100E500040F090808A1A4FEA1C471FFA8CFE01214D
:100E6000B2FBF7F507FB1520220C42EA00420EFB0D
:100E700005F0904208D91CEB020205F1FF3802D2BE
:100E8000904200F2CB804546121AA4B2B2FBF7F0B2
:100E900007FB102244EA02440EFB00FEA64508D9D7
:100EA0001CEB040400F1FF3202D2A64500F2BB8025
:100EB0001046A4EB0E0440EA05409FE7C1F120076D
:100EC0008B4022FA07FC4CEA030C05FA01F420FAE5
:100ED00007F3FD404FEA1C492343B5FBF9F81FFA1D
:100EE0008CFE09FB18551C0C44EA054408FB0EF562
:100EF000A54202FA01F200FA01F00BD91CEB04043E
:100F000008F1FF3A80F08880A54240F28580A8F180
:100F100002086444641B9DB2B4FBF9F309FB13445B
:100F200045EA044403FB0EFEA64508D91CEB040465
:100F300003F1FF356CD2A6456AD9023B644443EA0B
:100F40000843A3FB0295A4EB0E04AC42C846AE4690
:100F500056D353D056B1B0EB080264EB0E0404FA3A
:100F600007F7CA40CC401743C6E900741846002171
:100F7000BDE8F087C3F1200102FA03FC20FA01F278
:100F800025FA01F19D402A434FEA1C471FFA8CFEC7
:100F9000B1FBF7F007FB1015110C41EA054100FB0E
:100FA0000EF58D4204FA03F408D91CEB010100F19F
:100FB000FF382FD28D422DD902386144491B92B29D
:100FC000B1FBF7F507FB151142EA014205FB0EF1F3
:100FD000914208D91CEB020205F1FF3816D291426A
:100FE00014D9023D6244521A45EA004138E73146BD
:100FF000304608E73946E6E61046FBE64845A9D202
:10100000B9EB020865EB0C0E013BA3E74546EAE7A6
:101010002B4694E74046D1E7D0467BE7023D624449
:1010200032E708460AE76444023842E7704700BFE7
:101030000149002009F03AB8A927000830B5274C2B
:10104000274D2DED028B87B001F0B6F801F0BAF80C
:1010500001F002F9F0EE408A01F004F9B0EE408AA6
:1010600018EE900AFFF790FA02460B4601A82146B7
:101070002CF068FC18EE100AFFF786FA02460B46C1
:101080000DF10E0021462CF05DFCF3EE0C7A2846A3
:101090000121F4EEE78AF1EE10FACCBF0122002222
:1010A00004F048FDDFED0F7A4FF480610E48B4EE96
:1010B000E78AF1EE10FACCBF0122002204F03AFDDB
:1010C00000230A4801A91A46006807F0ADFB07F0A3
:1010D000C9F94FF47A7007F0E3F9B5E7880403081B
:1010E000000002400000704200140240AC61012088
:1010F00010B594B01022002102240AA82CF01AFD89
:101100001422002103A82CF015FD1D4B192108A85D
:101110001A6C42F080521A641B6C03F080530193E6
:10112000019B184B1A6842F440421A6001221B6866
:1011300003F440430293029B4FF48033CDE908232C
:101140004FF48003CDE90E434FF4D873CDE9124438
:10115000CDE9101305F078FD05F01AFA0F230020F1
:101160000721CDE903344FF4A053CDE905034FF433
:10117000805303A8079305F04FFF14B010BD00BFC4
:1011800000380240007000402DE980489DB01022D8
:10119000002101250FA800242CF0CCFC04F05AF902
:1011A0004FF01041C84B0FA8ADF83C501294CDE958
:1011B000101304F06DF917230FA88DF83D508DF82A
:1011C00044308DF84A5004F063F9042004F050F9DB
:1011D000BFF34F8FBFF36F8FBC4AC2F85042BFF3CB
:1011E0004F8FBFF36F8F536943F400335361BFF3E5
:1011F0004F8FBFF36F8FC2F88440BFF34F8FD2F889
:10120000803043F6E074C3F3C900C3F34E335B018F
:1012100003EA0406014646EA81750139C2F86052C4
:10122000F9D2203B13F1200FF2D1BFF34F8F536956
:1012300043F480335361BFF34F8FBFF36F8F04F0DC
:101240006FF80024FFF754FF142200210FA82CF0A0
:1012500071FC9F4B10219F481A6B012510274FF0FE
:10126000030942F010024FF480584FF0400B9A4EA1
:101270001A634FF0040A1A6B02F010020192019AED
:101280001A6B42F002021A631A6B02F00202029217
:10129000029A1A6B42F001021A631A6B02F0010201
:1012A0000392039A1A6B42F040021A631A6B02F01F
:1012B00040020492049A1A6B42F400721A631A6B89
:1012C00002F400720592059A1A6B42F008021A6342
:1012D0001A6B02F008020692069A1A6B42F48062B8
:1012E0001A631A6B02F480620792079A1A6B42F42F
:1012F00080721A631A6B02F480720892089A1A6B51
:1013000042F020021A631A6B02F020020992099A35
:101310001A6B42F080021A631A6B02F080020A9282
:101320000A9A1A6B42F004021A6300221B6B03F044
:1013300004030B930B9B04F0FDFB0122082167487B
:1013400004F0F8FB01224FF48051654804F0F2FBF1
:101350000022C021634804F0EDFB002240216248D6
:1013600004F0E8FB00224FF48061604804F0E2FBE7
:10137000002201215E4804F0DDFB0FA95548CDE9AC
:101380000F75CDE9114904F04DFA08230FA9534810
:10139000CDE90F35CDE9114404F044FA0FA95048C6
:1013A000CDE90F85CDE9114404F03CFAC0220FA924
:1013B0004C48CDE90F25CDE9114904F033FA0FA9C6
:1013C0004948CDE90FB5CDE9114904F02BFA4FF4A6
:1013D00080630FA94548CDE90F35CDE9114404F0EC
:1013E00021FA0FA94248CDE90F55CDE9114404F087
:1013F00019FA40484049848001600562C0E905440B
:1014000004F072F83D493046C6E90A44C6E90C4486
:10141000C6E90014C6E9024404F003F9294630463F
:10142000374E04F0B7F94FF4C07236493046C6F86B
:1014300014B0DFF8D4B0B460B462C6E906244FF447
:101440000062C6E908284FF002080722C6E9001426
:101450000FA9CDF85480C6E903A7CDE90F82CDE9E5
:1014600011A2CDE9139806F03DF959464FF6FF72E7
:1014700030460094CBE90057CBE9025406F052F90C
:10148000284603F071FF59464FF6FF723046CBE90C
:101490000087CBE9025406F045F9082359464FF678
:1014A000FF723046CBE90097CBE9023406F03AF9F7
:1014B0004FF40C734FF6FF72594600933046009B71
:1014C0004FF0180922E000BF1B00000300ED00E010
:1014D0000038024000040240EC6201200028024073
:1014E00000200240000802400018024000140240A0
:1014F00000000240886101200030024000B002403C
:1015000034630120400100A0AC020020CBF8085059
:10151000CBF80C30CBE900A706F004F940F22B71B0
:101520003046914E06F01DF94FF0204343F2D202AF
:101530006420DFF8A8B21A6003F016FF8B4B8C4AC8
:1015400030463462C6E90023C6E90245C6E90444D0
:10155000C6E9064404F016FC2146304604F034FE89
:1015600021463046834E04F055FE342221460FA812
:101570002CF0E0FA804B2821352040F2152C40F267
:10158000352EB486346186F83640C6E90034092326
:10159000C6E905130B23C6E9070340F21B133046C7
:1015A000C6E909C340F21D13C6E90244C6E90BE3CC
:1015B00004F0D8FE4FF48873FF214FF4F0723046E8
:1015C0001A930F94ADF86C408DF86E406B4ECDE9D8
:1015D0001238CDE914144FF480680521CDE9168145
:1015E0004FF04041CDE91024CDE9181222460FA951
:1015F00004F083FF6248634B0462C0E900354FF496
:10160000A063C0E902A7C0E90493C0E9064405F05D
:10161000D9F8DFF8CCA103F001FD03F045FC5C2014
:1016200003F006FF00F040FE574B30463462C6E937
:1016300000A3C6E90245C6E90444C6E9064404F02D
:10164000A1FB21463046514D04F0BEFD21463046F7
:101650004F4E04F0DFFD4F484FF4E1330461446224
:10166000C0E900B30C23C0E90244C0E90534C0E975
:10167000074406F0B0FD484A40F2E7333046119483
:10168000B460B461C6E900234CF24F33CDE90F4496
:10169000F36006F011FA0FA930460F94119406F08A
:1016A000DFFA3A4621460FA82CF044FA3B4B284675
:1016B0000E94AC60C5E900344FF6FF73CDE90C44DD
:1016C000C5E90334C5E9054406F0F6F94FF40053C3
:1016D0000FA92846CDE90F34CDE9114406F026FACA
:1016E0000CA928460E94CDE90C4406F0B9FA00F096
:1016F00007FE00F004FE2A482CF01CF929482CF0C3
:1017000019F9304606F080F8284606F043F800F054
:10171000CDFC00F051FD00F055FD00F0A9FD224880
:101720002CF008F906F010FE204A2146204806F069
:1017300045FE204B204A21461860204806F03EFE18
:101740001F4B204A214618601F4806F037FE1F4BEA
:101750001F4A214618601F4806F030FE1E4B1860D5
:1017600006F00CFEFEE700BF9460012068474020B1
:10177000005C0040B4610120006801403461012038
:10178000D4630120001000A00D030060E860012078
:1017900078630120606201200014004000040140D1
:1017A0008E040308A9040308B704030810050308FE
:1017B0003918000890600120EC0403080F2300088A
:1017C0005C62012058050308913B0008306301204A
:1017D000340503083D100008B061012000100140ED
:1017E0000054004007B54FF6FF730190012201A994
:1017F000034806F07CFC019803B05DF804FB00BFD1
:101800006062012008B500221421102006F0C6FFF6
:10181000064B002218601146054806F0CFFD054B27
:101820001860B0FA80F04009404208BDAC61012068
:101830003D1000082C63012008B5FFF7E3FF64208A
:1018400006F02EFEFBE700000268034B9A4201D12E
:1018500003F078BD704700BF0010004070470000E3
:101860000D4B82B00F216FF001001A6C42F08052D4
:101870001A641A6C02F080520092009A5A6C42F478
:1018800080425A6400225B6C03F480430193019B05
:1018900002B003F08DBD00BF00380240026882B084
:1018A000084B9A420BD1D3F8302803F5006342F479
:1018B00080521A631B6B03F480530193019B02B0A7
:1018C000704700BF003002400E4B07B502689A42D5
:1018D00015D1A3F5F04305215A201A6B42F40002FA
:1018E0001A6300221B6B03F400030193019B03F0B6
:1018F0005FFD5A2003B05DF804EB03F08BBD03B02D
:101900005DF804FB00B0024010B5AAB004461422F2
:10191000002104A82CF00EF98422002109A82CF043
:1019200009F923682F4A93422DD14FF4804309A827
:10193000099305F04DFC08B1FFF790FF2A4C4FF4D6
:1019400040704FF0000C04A9236B43F002032363A3
:10195000236B03F002030093009B1223CDE90403E1
:1019600003232248CDE906C30423089303F05AFF5A
:10197000236C43F400132364236C03F400130193DA
:10198000019B2AB010BD1A4A9342FAD14FF480331A
:1019900009A8099305F01CFC08B1FFF75FFF124C82
:1019A0004FF4C07201211348236B43F0800323637B
:1019B000236B03F080030293029B1223CDE90423DF
:1019C0000323CDE90613042304A9089303F02AFF97
:1019D000236C43F400032364236C03F40003039398
:1019E000039BCEE700540040003802400004024050
:1019F000005C0040001C0240144A08B50368934292
:101A000011D102F5F2324FF480711148136C23F4B6
:101A10000013136403F0E8FF4FF400710C48BDE8B5
:101A2000084003F0E1BF0B4A93420DD102F5EE32BC
:101A300080210948136C23F40003136403F0D4FFDE
:101A40004FF480710448EAE708BD00BF005400402D
:101A500000040240005C0040001C024070B5ACB0C5
:101A600004461422002106A82CF064F884220021E8
:101A70000BA82CF05FF82268484B9A4240F08C800B
:101A80000823052001240B934FF4C0731093022305
:101A9000CDE911304FF400330BA8CDE9154305F023
:101AA00097FB08B1FFF7DAFE3D4B002402250E2616
:101AB0005A6C06A93B4842F080625A645A6C02F0A4
:101AC00080620092009A1A6B42F010021A631A6B3D
:101AD00002F010020192019A1A6B42F400721A632A
:101AE0001A6B02F400720292029A1A6B42F480623C
:101AF0001A631A6B02F480620392039A1A6B42F023
:101B000040021A631A6B02F040020492049A1A6BA4
:101B100042F480721A631B6B03F480730593059B78
:101B20001023CDE90635CDE908440A9603F07AFE84
:101B30004EF6FF7306A91C480A96CDE90635CDE995
:101B4000084403F06FFEF72306A918480A96CDE96A
:101B50000635CDE9084403F065FE4FF4805306A92D
:101B60001348CDE906350923CDE908440A9303F06B
:101B700059FE4FF4464306A90E480A96CDE90635AC
:101B8000CDE9084403F04EFE58202246052103F01B
:101B90000FFC582003F03EFC2CB070BD00680140E3
:101BA0000038024000100240002402400028024099
:101BB0000018024000200240142200212DE9F041CB
:101BC0008AB004460DEB02002BF0B4FF22682C4BC8
:101BD0009A4251D12B4B0225032409269A6B4FF0D0
:101BE000040805A9284842F0020200279A639A6B6C
:101BF00002F002020192019A1A6B42F010021A637B
:101C00001A6B02F010020292029A1A6B42F0020260
:101C10001A631A6B02F002020392039A1A6B42F0E3
:101C200008021A631B6B03F008030493049BCDE9BD
:101C30000585CDE9084603F0F5FD402305A91348C5
:101C4000CDE905350A23CDE90774099303F0EAFDD0
:101C500005A90E480996CDE90585CDE9077403F07D
:101C6000E1FD4FF4605305A909480996CDE9053512
:101C7000CDE9077403F0D6FD0AB0BDE8F08100BFDE
:101C8000001000A000380240001002400004024092
:101C9000000C0240026808B50B4B9A4213D10B4A64
:101CA00004210B48936B23F00203936303F09CFE23
:101CB0004421084803F098FE4FF460510648BDE8FF
:101CC000084003F091BE08BD001000A0003802409B
:101CD0000010024000040240000C024010B588B021
:101CE00004461422002103A82BF024FF2368184A7D
:101CF00093420BD1174B1A6C42F020021A641B6CF2
:101D000003F020030093009B08B010BD124A9342D9
:101D1000FAD1104B03A911485A6C42F002025A64DE
:101D20005A6C02F002020192019A1A6B42F480721C
:101D30001A6308221B6B03F480730293029B022335
:101D4000CDE903230323079303F06CFDDCE700BF19
:101D5000001400400038024000040140002002400E
:101D6000F0B5ABB004461422002104A82BF0E2FE2B
:101D70008422002109A82BF0DDFE2268204B9A4224
:101D80003CD1402309A8099305F022FA08B1FFF7D6
:101D900065FD1C4B0227002603255A6C072404A965
:101DA000194842F010025A645A6C02F01002019273
:101DB000019A1A6B42F002021A631A6B02F00202D5
:101DC0000292029A1A6B42F001021A631B6B08948A
:101DD00003F001030393039B8023CDE90665CDE95E
:101DE000043703F01FFD4FF4007304A9074808945B
:101DF000CDE90437CDE9066503F014FD2BB0F0BD45
:101E0000001001400038024000040240000002407F
:101E1000F0B5002387B00393294B1E68002E4DD1E7
:101E20000122022703250C241A6001A9254B26480C
:101E30009A6B42F001029A639B6B03F001030093DB
:101E4000009B4FF68373CDE90454CDE9013703F0CD
:101E5000E9FC48F2331301A91C480594CDE9013788
:101E6000CDE9036503F0DEFC4CF2037301A91848C9
:101E70000594CDE90137CDE9036503F0D3FC4FF6B6
:101E80003F0301A913480594CDE90137CDE9036566
:101E900003F0C8FC282301A90F480594CDE90137B8
:101EA000CDE9036503F0BEFC082301A90B480594A6
:101EB000CDE90137CDE9036503F0B4FC07B0F0BD0F
:101EC000BC0200200038024000100240001802400E
:101ED000000C024000140240001C024000080240B6
:101EE000214B1A6C42F0100270B51A6488B01B6C5A
:101EF000054601A903A803F010030293029B05F015
:101F000049F9069B4BBB05F025F9184E184B336079
:101F100040F2E733F360174BB0FBF3F3013B30467D
:101F2000736000233361B360B36105F0C5FD0446FF
:101F300080B9304605F068FC044658B9362003F0F5
:101F400069FA0F2D0DD822462946362003F030FAC3
:101F5000094B1D60204608B070BD05F0FBF840003D
:101F6000D3E70124F6E700BF0038024030640120C7
:101F70000010004040420F003C0000207047FEE788
:101F8000FEE7FEE7FEE77047014805F07FBC00BFB3
:101F900030640120014804F053BA00BFB46101204D
:101FA000014803F06CBB00BFEC62012001207047C8
:101FB00008B52BF077FE162303604FF0FF3008BD05
:101FC00008B52BF06FFE16230360FEE770B50D46D3
:101FD00014460E46731B9C4201DC204670BDAFF3D5
:101FE000008006F8010BF5E770B50D4614460E4665
:101FF000731B9C4201DC204670BD16F8010BFFF7F5
:10200000F1FBF5E74FF0FF3070474FF4005300202D
:102010004B60704701207047002070470B4A034611
:10202000116810B509B90A491160106809490A4CCC
:102030000344091B8B4206D92BF034FE0C230360AA
:102040004FF0FF3010BD1360FCE700BFC00200205E
:10205000106F012000000520000A00001FB54FF49A
:102060007A74009241F08002BF21CDE9013401234E
:1020700003F0F2FE002004B010BD1FB54FF47A74D7
:10208000009241F08002BF21CDE90134012303F029
:10209000BDFF002004B010BD0A464FF47A7301461C
:1020A000014806F024B800BF606201202648274B93
:1020B00010B50360264B274C4360274B2146C36075
:1020C0000023237002F09DFD38B9217823482BF0BE
:1020D000CBFB2378BC2B04D0FEE721482BF02AFC55
:1020E000F7E72049184802F025FE1F49164802F07C
:1020F000BDFD1E49144802F033FE1D49124802F08E
:10210000C7FD1C49104802F041FE1B490E4802F071
:10211000D1FD1A490C4802F04FFE19490A4802F055
:10212000E9FD0121084802F01EFD0021064802F0E9
:1021300003FD0121044802F082FD01210248BDE8AF
:10214000104002F065BD00BF306601205D20000830
:102150007B200008B4060020346101207C050308C0
:102160008B050308206401202464012028640120D9
:102170002C640120686301206C63012070630120DE
:102180007463012090ED017AD0ED037AD0ED006AFE
:1021900037EEC76A90ED020A66EEE77AE7EE007A5C
:1021A00007EE101A30EE660AB8EEC77AE6EE077A46
:1021B00087EE800A704700000121014802F0EABC66
:1021C0003066012010B500231A4C1B48214623809D
:1021D00002F0F7FCB4F900101848FFF7D3FFB5EE92
:1021E000C00A174BF1EE10FA19D500221A60154CEF
:1021F000002311482146238002F0F3FCB4F90010BB
:102200001148124BFFF7BEFF114883ED000AFEF79D
:102210004FF881B20E48BDE81040FFF73DBFDFED3B
:102220000D7AB4EEE70AF1EE10FA77FE807AC3ED8C
:10223000007ADCE7C402002030660120206401201F
:102240005C6B0120C6020020686301201866012033
:10225000CC0200200000C842014B93ED000A7047F9
:1022600018660120014B93ED000A70475C6B01205A
:102270000849094A0B68094802EB830200681060AC
:10228000074A084802EB8302013300680B601060C4
:10229000704700BFC8020020D867012018660120DF
:1022A000406601205C6B012070470000DFF834D0ED
:1022B000002103E00C4B5B58435004310B480C4B9E
:1022C00042189A42F6D30B4A02E0002342F8043B3C
:1022D000094B9A42F9D302F039FF2BF0E9FCFEF7E3
:1022E00053FF704700000520105303080000002032
:1022F0009002002090020020106F0120FEE770473E
:1023000008B501F0F7F8BDE8084001F083B801F026
:10231000F3B8406870474160704700004FF0E0221A
:10232000D2F8FC3D43F08073C2F8FC3D054B064AF1
:10233000D3F8B01F0A43C3F8B02F1A6842F0010265
:102340001A607047001000E055CEACC5511A01EB81
:102350005301B1FBF3F07047014B5868704700BF61
:10236000001000E0704710B504460C2129F009FE6A
:10237000204610BD036810B51B69044631B198476B
:10238000A26863689B1A1844606010BD9847A060FB
:10239000FBE70000024B7020024A1360DB6818471D
:1023A00010000020B8060020704710B50446042134
:1023B00029F0E7FD204610BD73B50E4E0D461446BC
:1023C000336813B9002002B070BD1B6970209847B4
:1023D0000028F7D03368702001AA0DF106015B696F
:1023E0009847BDF8043001202B60BDF8063023600B
:1023F000E9E700BFB80600207FB501238DF817205C
:102400004FF47A72CDE901320DF1170200920A46BB
:102410000146054803F020FD10B1034803F003FD19
:1024200007B05DF804FB00BF946001207FB5002376
:102430000A464FF47A718DF817300123CDE9013146
:102440000DF1170100910146054803F0DFFD10B1C1
:10245000034803F0E8FC9DF8170007B05DF804FBA3
:1024600094600120032823D8DFE800F0020B131A40
:10247000104B102110481A68B2FA82F2520903F088
:1024800059BB0C4B40215A68B2FA82F252090B48F0
:10249000F5E7084B80219A68B2FA82F25209F6E712
:1024A000044B40210648DA68B2FA82F25209E6E7A4
:1024B000704700BFBC060020000402400008024034
:1024C00000180240032823D8DFE800F0020B131A9B
:1024D000104B102110481A68003A18BF012203F06F
:1024E00029BB0C4B40215A68003A18BF01220B4807
:1024F000F5E7084B80219A68003A18BF0122F6E7F9
:10250000044B40210648DA68003A18BF0122E6E78A
:10251000704700BFBC0600200004024000080240D3
:102520000018024003280FD8DFE800F00206090B6C
:102530001021064803F003BB40210548FAE780213B
:10254000FBE740210348F5E7704700BF0004024065
:10255000000802400018024008B5032813D8DFE83D
:1025600000F0020A0D0F1021084803F0DDFA431EA7
:102570005842584108BD40210548F6E78021FBE755
:1025800040210448F1E70020F1E700BF00040240C9
:10259000000802400018024070B5084D00240126D2
:1025A000E0B2FFF7D9FF18B12B68012B18BF2E60DE
:1025B00001340435052CF3D170BD00BFBC060020EA
:1025C000012380F8781080F8793070470020704738
:1025D00041640039024B18BF01211970704700BFD8
:1025E0005F54012000207047836B0BB108461847E9
:1025F00070474FF6FF707047406803689B69184743
:102600007047000038B5044601F080F80849236897
:102610002046084DD3F88C3098470023284684F88C
:102620004A30FFF77BFE0123256184F8703038BD06
:10263000000000C0CC06002001F01EB801F022B856
:1026400070B501F08DF810490023C1F88430BFF354
:102650004F8FD1F8803043F6E074C3F3C900C3F361
:102660004E335B0103EA0406024646EA8275013AEC
:10267000C1F87452F9D2203B13F1200FF2D1BFF30D
:102680004F8FBFF36F8F70BD00ED00E001F06AB8AF
:1026900000F0CEBF01F084B901F08CB900F0D2BFD8
:1026A00010B5044616F0CCFA23682046D3F8AC30B7
:1026B000BDE81040184715F021BD10B504467C2137
:1026C00029F05FFC204610BD90F87A301BB14068BD
:1026D00003681B68184718467047000090F83410CC
:1026E0000D4B10B590F878401A788C4209D03AB961
:1026F0000A490B4A08881488108001220C801A703D
:1027000010BD002AFCD0064A0449148808880C80B1
:1027100010800022F3E700BF5854012056540120D6
:102720005454012070B50D46194635B9094B40F295
:10273000D221094A094829F053FCC0E90F52003A56
:10274000074B18BF01221A700368BDE87040D3F828
:102750008C301847EC0503082406030872060308AA
:102760005E54012008B5094B1B888B4203D8084BE7
:102770001B88934205D9074B9E21074A074829F039
:102780002FFC074B1980074B1A8008BD54540120B9
:1027900056540120B70603081A07030872060308F7
:1027A0005A5401205C540120014608B5034B1868B7
:1027B00001B1012116F05EFA012008BD605401202C
:1027C000034B00225A609A60024A1A60704700BFA9
:1027D000CC060020B40503080121002208B50846F4
:1027E00005F016FF0A4B186028B90A4B28210A4A3F
:1027F0000A4829F0F5FB00220421012005F0CEFF54
:10280000074B186018B9074B2C21034AF0E708BDA5
:10281000DC0600203808030881080308B008030814
:10282000D8060020FD080308024B4FF0FF3118685E
:1028300005F044BFDC060020014B186805F078BFA6
:10284000DC060020024B0021186805F037BF00BFEE
:10285000DC060020FFF7F0BF0023034803491A46B7
:10286000006805F0E1BF00BFD8060020040000208A
:1028700013B50023074C01A91A46206806F016F884
:102880004FF0FF33002201A9206806F00FF802B0D4
:1028900010BD00BFD806002003685B6C18470120FC
:1028A000704703689B6A18470D4B82B01A6B42F45D
:1028B00000021A631A6B02F400020192019A1A696B
:1028C00042F400021A611A6922F400021A61054BEF
:1028D000054A1A614FF08062044B9A6002B070475B
:1028E00000380240EC6201203129000800E100E0DC
:1028F00040F2EF3070470000054B4FF080620360FC
:10290000044BC3F88820BFF34F8FBFF36F8F70471E
:102910009C0A030800E100E010B504464FF45A6138
:10292000FFF7EAFF204629F02CFB204610BD0000EF
:10293000024B1B68586803685B69184760540120A4
:1029400070B504460A4B0C300026254660226060B4
:102950002672667245F8203B294616F0C7FA04F540
:102960005A63EE602435AB42FBD1204670BD00BFF8
:102970009C0A030808B50B290BD8DFE801F0120602
:10298000100A0A0A0A0808080808012008BD0520DC
:10299000FCE7054B6521054A054829F021FB00208D
:1029A000F4E70220F2E700BF3F0903085A090308D1
:1029B000A409030808B50A2909D8DFE801F01006C0
:1029C0000E080808080606060600012008BD054B8B
:1029D0008621054A054829F003FB0020F6E702207E
:1029E000F4E700BF3F090308EF090308A40903083F
:1029F0002DE9F84391F81D800C4607464146FFF744
:102A0000B9FF94F81E90054638464946FFF7B2FFD5
:102A1000494606463846FFF7CDFFA18A628B434BF5
:102A2000521A1A649A61228B521A1A61E28A586306
:102A300042EA014220695A646268D863DA60276812
:102A4000802F28D0227F0FD8202F65D0402F63D031
:102A5000042F1AD045EA0265344BC84545F40035C9
:102A6000DD615FD0324A44E0B7F5807F04D0B7F52E
:102A7000007FEFD12F4900E02F4941EA0262DA617D
:102A8000E2681A625E62586132E045EA026242F42C
:102A90000032DA61F6E7A7683A1DDA62217F3A78F8
:102AA00045EA016545F40035DD615E62586142B179
:102AB000012A21D0214B4FF48871214A214829F065
:102AC0008FFADA69798822F47F42013922F0100204
:102AD00042EA01220121DA61144BDA6942F0200254
:102AE000DA61DA699206FCD410229A600029B9D022
:102AF000154A1A60BDE8F883DA69FF39788822F44C
:102B00007F4218BF0121013822F0100242EA002260
:102B100042F01002DA61DFE745EA0262034B42F459
:102B20000032B6E740F20122E3E700BF00B0024006
:102B300001020100090002000A0002003A0A03082B
:102B4000540A0308A40903080102020038B50C4620
:102B5000897FFFF72FFF174BA58AE28A586342EA65
:102B6000054221695A64628BD963521B1A64256835
:102B7000082D0ED19A611A6158620F4A207F42EAED
:102B80000062DA61E2681A620C4A5961D9601A601F
:102B900038BD0022D8611A61E1680A0A4809C1F308
:102BA000C40102F4784200F4FC6002430A439A63D1
:102BB000034AECE700B002400900010001020200F4
:102BC000010203004069704790F844007047036BAE
:102BD00023B9C06A003818BF012070470120704730
:102BE00080687047043010B50C460FC884E80F00A9
:102BF00010BD704708B5034A40F21221024B03484A
:102C000029F0EEF9E40A0308AB2403083F0B03089C
:102C100010B50446482129F0B4F9204610BD000043
:102C20002DE9F0431C46436BADF51F7D05460E466E
:102C30001746002B37D0002203A8DFF8A890CDE973
:102C400001320DF093FF4FF4F4725021249024A828
:102C500007F0DBFE3A46314624A808F057FE012172
:102C600024A807F0D5FF022324A88DF8D83008F057
:102C700073F8BDF898322B9ABDF89C629342A89FD6
:102C800028BF1346419A964203EB4308A7EB43073C
:102C900028BF1646479B9E4209D824A807F0DAFFB2
:102CA00024A807F0FFFE0DF51F7DBDE8F08301228B
:102CB00001A924A808F099F86B6B03EB080098426F
:102CC00001D83C44E6E759789A78C90009EA02221B
:102CD00001F4FC610A4313F8031B42EAD10224F811
:102CE000022BECE700F8FFFF0A4A02600022C0E96D
:102CF0000522C0E90722C0E90922C0E90B22C0E988
:102D00000D12C0E90F2280F84420C0E90322C0E977
:102D100001227047200E030810B40C4611461A46D3
:102D2000036B3BB1036C806BE41A20445DF8044BE9
:102D30002AF008BFC06AF8E7036B10B573B1036CE3
:102D4000826BC91A5318525C98785C780004DB785F
:102D500040EA0420104340EA036010BDC36A58589B
:102D6000FBE7036B43B1036CC91A836B5A18585CB9
:102D7000527840EA02207047C36A585A70470000F0
:102D800070B50446006B0D461646D8B1E36B93420E
:102D900008D209230D4A65210D4884F844300D4BB3
:102DA00029F01EF90368DB689847206B3246A16B57
:102DB00003681B69984710B90D2384F84430A06B51
:102DC000256470BDE06A0844FBE700BFA90B030857
:102DD0003F0B0308960B03082DE9F84343690446AB
:102DE0002BB9234BAA21234A234829F0F9F80822BA
:102DF0008169FFF7C5FFA16943F2300646F26437E7
:102E000004312046FFF798FFA3691844A36A00F134
:102E100008029A4206D3012300206361236AA3615A
:102E2000BDE8F883636909300822013320F001010D
:102E300020466361A161FFF7A3FFD4F818902046F4
:102E40004946FFF78EFF09F1020180462046FFF751
:102E500088FF09F1040105462046FFF76DFFB045E4
:102E6000D2D1BD42D0D10028CED00120D8E700BFBA
:102E7000EB0B0308340C03083F0B03082DE9F04F5C
:102E80000446ADF51F7D8A4616468169082298469C
:102E9000FFF776FFA7692046391DFFF74DFF07F1C1
:102EA0000801024605462046FFF76AFF636B0746A6
:102EB00033B93C4B40F2AB113B4A3C4829F090F807
:102EC000002203A8CDE901320DF050FE4FF4F47258
:102ED0005021249024A807F098FD2A46394624A8BA
:102EE00008F014FD012124A807F092FE022324A873
:102EF0008DF8D83007F030FFBAF90250479BAB424B
:102F000029D3BAF900904FEA4808BAF804702B9B0D
:102F100008FB05664F44BAF80250DFF894B03FB2A0
:102F20009F4228BF1F46BAF8063009EB490A1D44E4
:102F3000419B2DB29D4228BF1D46479BAB4210D3FB
:102F400024A807F087FE24A807F0ACFD01200DF5AA
:102F50001F7DBDE8F08F012201A924A807F045FFDD
:102F6000CCE7012201A924A807F03FFF626B494684
:102F70005244B94202F1030201D34644DDE712F89C
:102F8000020C12F8013CC0000BEA032300F4FC60C1
:102F9000034312F8030C43EAD00326F81130013141
:102FA000E7E700BF670C0308BD0C03083F0B0308ED
:102FB00000F8FFFF0129036838BF0121DB6A70B503
:102FC0000D4604469847A84204D223682046DB6A8F
:102FD000984705466B1EE6691022204606EB03164D
:102FE00006F10801FFF7CCFE06F110012046FFF7BD
:102FF000A3FE236A043B0344C4E9055370BD0000EB
:103000002DE9F341002104464822816180F84410F3
:10301000FFF7B6FEA7690423634A39462046FFF747
:103020007BFE40B10323614AF22184F84430604BB7
:10303000604828F0D5FF07F1080104235E4A2046C6
:10304000A161FFF769FE30B10423584AFA2184F8E0
:1030500044305A4BECE707F10C010423584A204650
:10306000A161FFF759FE064638B105234F4A40F2E9
:10307000011184F84430534BDAE707F11001204680
:10308000FFF75AFE054620B94F4B40F20711474A59
:10309000CEE707F1140804234C4A20464146FFF7C7
:1030A0003BFE00284BD0062384F844300423484AD2
:1030B00007F118012046FFF72FFE002841D0072313
:1030C00084F844304544434F0C2220462946FFF7FC
:1030D00057FE05F1080604233A4620463146FFF71D
:1030E0001BFE94F8443000284AD0002B4AD1A36A32
:1030F000291DAB424AD805F10C03291D2046A361C6
:103100000191FFF719FE3044019960622046FFF7F4
:1031100013FE0644042220463146FFF731FE042305
:103120002D4A31462046FFF7F7FD002839D101230B
:10313000E6616361A369236202B0BDE8F081012604
:10314000B4E7002EBED007F120012046FFF7F4FDC2
:103150004FF47A7307F13001B0FBF3F06060204662
:10316000FFF7EAFD07F14001A0602046FFF7E4FD0C
:1031700007F14401E0602046FFF7DEFD2061A1E792
:10318000002BB8D00A2384F84430D5E72046FFF757
:10319000D3FD08300C22054420462946FFF7F0FDF8
:1031A00097E70B23EFE700BF170D0308350D030862
:1031B0001C0D03083F0B0308620D0308670D03088D
:1031C0007F0D0308840D03089A0D0308A60D03085C
:1031D000AB0D0308B00D0308B50D0308C0E90A21C3
:1031E00000220263FFF70CBF10B500230446084617
:1031F000E3620B6821639B689847A0622046BDE8A4
:103200001040FFF7FDBEF0B4BDF81050BDF81460DB
:103210002AB123B1CDE90456F0BCFFF701BDF0BCE3
:10322000704700002DE9F04F9946436985B0044688
:103230000F4690462BB92A4B77212A4A2A4828F074
:10324000CFFE08228169FFF79BFDA6692046314623
:10325000FFF787FDB11C83462046FFF782FD311D35
:1032600082462046FFF768FD06F10801A36A05467D
:1032700042189A4227D243F230039B4517D146F2B7
:1032800064339A4513D190B10246A1612046FFF7FD
:1032900077FD0E9B01462A462046CDF80080CDE9F9
:1032A00001933B46FFF7AFFF636901336361A36995
:1032B0002B448DB1A361A369626A013323F001033A
:1032C0009342A3610AD10120236A6061A36180F067
:1032D000010005B0BDE8F08F0833EBE70020F6E70A
:1032E000EB0B0308BA0D03083F0B030801207047DE
:1032F0000C2070470C2303FB0100083070470C239F
:1033000003FB010008307047012070474FF4117033
:1033100070474FF4117303FB0100083070474FF4FE
:10332000117303FB01000830704701207047102023
:10333000704700EB01100830704700EB01100830B7
:103340007047084600F03EBE034B10B504460360CC
:1033500014F02AFC204610BDC80E030810B5044620
:10336000FFF7F2FF1421204628F00BFE204610BD87
:10337000034B10B50446036014F016FC204610BD44
:10338000940E030810B50446FFF7F2FF4FF41371D3
:10339000204628F0F6FD204610BD0000034B10B576
:1033A0000446036014F000FC204610BD600E0308C4
:1033B00010B50446FFF7F2FF1821204628F0E1FD82
:1033C000204610BD084B10B50446036000F51E7082
:1033D000FFF7BAFF04F12C00FFF7CAFF04F1140055
:1033E000FFF7DCFF204610BDFC0E030808B50248BD
:1033F000FFF7E8FF08BD00BFE406002010B5044653
:10340000FFF7E0FF4FF47B71204628F0BAFD20461D
:1034100010BD00002DE9F34100F054FC00240546E6
:1034200000F054FC234601462246284600941BF037
:1034300045F9254B254A2046254D1A6001F0F8F93B
:1034400024481BF0A3F82B68BFF35B8FDB0735D450
:10345000284628F098FD88B31F4C204B04F52476AD
:1034600004F1140004F12C0804F51E772360606059
:10347000C4F80880E760266114F098FB184B4046BA
:10348000636114F093FB174B3846E36214F08EFB34
:10349000154B04F52370C4F8783201F00FFB224677
:1034A00004F52371304601F035FA304600F08AFD0C
:1034B0000E4828F0B3FD284628F071FD0C4802B0F4
:1034C000BDE8F041FFF79EB8BC540120F018002081
:1034D000E006002008000020E4060020FC0E03089F
:1034E000600E0308940E0308C80E0308ED330008AD
:1034F0007418002070470000014814F068BE00BF37
:103500007418002070B5224E224B234C3046234DB8
:103510002360FFF715FA28461FF0AAFB204B002274
:103520004FF480711F481A8683F858205A6683F832
:1035300070205A67DC60C3E912121B49C3E91A12F2
:103540001A4999671A490B604FF4F07101801948C4
:1035500001804FF488711848C3E90422C3E90622A8
:10356000C3E90822C3E90A22C3E90E22C3E91022F3
:10357000C3E91422C3E91722C3E9016501800F489A
:1035800083F8342001800E490A700E4A1A6070BD1B
:10359000D40A0020DC050308D00A0020F41800201B
:1035A00074180020545401200100000100000101A2
:1035B000605401205A540120565401205C540120CB
:1035C00058540120680703080148FFF795B900BF68
:1035D000D40A00200020704781807047C180704766
:1035E000018170474181704770477047704770474D
:1035F000704710B4C4880368121B84885B6D091B74
:1036000012B25DF8044B09B218474FF6FF7383817D
:103610004FF0FF3303621368C3611060704790F886
:1036200025201AB190F8242002B1186070470000DC
:10363000034B902283F85A2383F85823704700BF26
:1036400000E100E0094A0A49D3680A48C3F30A03C3
:10365000013B9BB20B801169C1F30A010139018062
:103660001364536B43F001035363704700680140D8
:10367000D2190020D0190020014BD3F8AC007047BC
:1036800000680140024B0122C3F8AC105A62704737
:1036900000680140124A5369DB0370B51ED5002350
:1036A000C2F88430BFF34F8FD2F8803043F6E07415
:1036B000C3F3C900C3F34E335B0103EA04060146BA
:1036C00046EA81750139C2F87452F9D2203B13F1F0
:1036D000200FF2D1BFF34F8FBFF36F8F70BD00BFCC
:1036E00000ED00E070473823002201FB0333C25491
:1036F00090F838300BB9036C83647047704710B58D
:103700000446582128F03DFC204610BD38B504463B
:1037100014F049FD23685D6E17F094FD01462046C4
:10372000A8472368084A2046D3F888500023A2F50A
:103730007F31A847054B064A5A60064A1A649A64C4
:103740004FF4FF225A6438BD00F807C078190020F2
:103750005421002000F40BC014F00CBD14F016BD71
:1037600014F0D2BC14F041BE90F8252012B10368C9
:103770005B6918477047000008B531B1044B40F24F
:103780009711044A044828F02BFC90F8390008BD32
:10379000080F03081C0F0308A910030810B531B166
:1037A000064B40F29111064A064828F019FC406881
:1037B00011460368BDE810401B6B1847080F03084B
:1037C000EB100308A910030808B529B1034B7A21AF
:1037D000034A044828F004FC006908BD080F0308E8
:1037E0009C120308A910030808B529B1054B8321D1
:1037F000054A064828F0F4FB41618160C0E90632C1
:1038000008BD00BF080F030854140308A9100308DB
:1038100010B5044629B1274BA421274A274828F090
:10382000DFFB052A34D8DFE802F003292F34393EC4
:10383000406803681B69984750B34FF0FF31606DD3
:1038400004F08CFE0023012294F83E1084F83B30F3
:1038500084F83920A360636101B1226284F83E30AC
:103860006362E36A2BB90123206D84F83A3004F0D7
:103870005FFF606DBDE8104004F0A0BE002380F83B
:10388000393084F83E3003E00362002383604361F3
:1038900010BD0362002383604361F2E7002380F8D8
:1038A00039300123EDE7003B18BF012380F83D309C
:1038B000EEE700BF080F030813160308A91003085A
:1038C00070B50446164629B1314BE721314A3248DA
:1038D00028F086FB90F8393033B1304B1B6893F8F1
:1038E0006B20436913444361E36A002B4DD0E169C7
:1038F000D4E905325343A2684A43934220D2236A53
:10390000002B42D04FF0FF31606D04F027FE236A98
:103910000BB10023E362E36AFBB90125606D04F09B
:103920004DFE94F839300BB9236A3BB1E36A2BB9E9
:103930000123206D84F83A3004F0FAFE284670BD69
:1039400094F84C000028DDD09B1AB3FBF1F29942A9
:1039500098BF02F1FF326262D4E7002294F83C5033
:10396000A3623046E262E2682261A2680132A2608C
:10397000336333685B699847002DCED194F83D30AE
:10398000002BCBD184F83950C8E70125C9E700BF27
:10399000080F0308EA170308A91003086054012060
:1039A000034B4FF080629A604FF080729A607047CC
:1039B00000E100E0084B4FF08062C3F88820BFF3BD
:1039C0004F8FBFF36F8F4FF08072C3F88820BFF323
:1039D0004F8FBFF36F8F704700E100E038B50346AB
:1039E00090F8380038BB01229860D8609A634FF491
:1039F000807258619A874FF4F0729861D8611862AA
:103A000058629862D8621863586383F83E00CA8689
:103A10004FF4887281F834000A8708639A6C186141
:103A200002F5FF24D3E9101529448C420AD9084B2A
:103A30005821084A03E0084B40F2F511074A0848AC
:103A400028F0CEFA1A6302F57F329C645A6338BDBF
:103A5000481B0308881B03088E190308BE190308B6
:103A6000A910030810B5144C236823B3134B144A50
:103A70001B6C11888B4213D1124B198802F06AFD1E
:103A8000226892F86A30013382F86A30FEF7E4FE69
:103A9000206815F0D5F80020BDE81040FEF7E2BC24
:103AA00002F058FD206803681B6A98470020BDE8B3
:103AB0001040FEF707BD10BD6054012000680140B2
:103AC000D2190020D01900202DE9F74304464FF405
:103AD000707894F83A304FF0FF31002B31D0606DA0
:103AE00004F03CFD276BA36ABB4200D1676B266ADA
:103AF000656856B32B68314628465B6A98470023B1
:103B0000236284F83B30606D04F058FD2B684FF45D
:103B1000F0723946CDF8008028465E694FF488730C
:103B2000B0474FF0FF310646606D04F017FD94F882
:103B30003B30E3B1002384F83B30606D04F03EFD80
:103B4000C7E7206D04F0BAFDC3E7636A002BDAD043
:103B50002B682846D3E909939847616A01442846AF
:103B6000C847A368626A66621344A360CBE7E76252
:103B70005EB12B6828469B6A984701380023E060B5
:103B800084F83C6084F83A30D7E70120F6E700007B
:103B9000014808B5FFF798FF781900200368042250
:103BA00070B504465E6A00230D46B0474FF0FF3102
:103BB000606D04F0D3FC382303FB0542D16A09B1E0
:103BC0000021D16203FB0545012385F83B3000232A
:103BD00085F83930606DBDE8704004F0EFBC38B551
:103BE00000EB810304460D46114658680368DB6804
:103BF000984729462046FFF7D1FF38BD70B50D46DE
:103C00001146044600EB85025068026896681A4621
:103C1000B04729462046FFF7C1FF70BD38B51649A9
:103C200000251648FFF760F8154C164B01202A4670
:103C3000294623604FF48073A564A38784F84C0061
:103C400084F83E50C4E91055C4E91455C4E901553F
:103C5000C4E90355C4E90555C4E90755C4E9095544
:103C6000C4E90B55C4E90D5504F0D2FC2065284683
:103C700004F030FC606538BDD419002054210020C8
:103C800078190020381D0308704710B50446042138
:103C900028F077F9204610BD08B503290FD8DFE8D2
:103CA00001F00202060A00F00FFE006808BD00F0F5
:103CB0000BFE4068FAE700F007FE8068F6E7002098
:103CC000F4E7000000487047801D03080820704793
:103CD00013B5002451B1036801AA01948DF8034083
:103CE0009C680DF10303A04702B010BD0846FBE736
:103CF000C0897047008A7047C088704780887047C5
:103D0000807A00F07F007047807AC0097047704762
:103D100010B50446082128F034F9204610BD70473C
:103D2000704700F598730868496803C37047704787
:103D30007047416070477047064BC0F84801C0F8B3
:103D40004C310023C0F8503100F5A273C0F8403167
:103D5000704700BFFD3D00080123037270477047A4
:103D6000704710B441680346C2689B68541001EB69
:103D70006200D20748BF0A595DF8044B48BFD358C8
:103D8000184743682BB183682BB9C06800F0010065
:103D90007047184670470120704710B504460C2143
:103DA00028F0EFF8204610BD10B50446102128F089
:103DB000E8F8204610BD10B504464FF4AE7128F067
:103DC000E0F8204610BD10B517F03CFA0368BDE8D6
:103DD0001040DB6B184710B50446D0F8400158B1CD
:103DE0000368DB68984738B1D4F8400103689B68E2
:103DF00098470023C4F8403110BD00002DE9F14F71
:103E0000D0E9555A0746A86803681B6A9847B0F579
:103E1000117F05D2454BA321454A464828F0E0F8DA
:103E2000686803681B6A98470F2803D8424BA4218F
:103E30003F4AF2E7E86803681B6A98470B2803D8F3
:103E40003E4BA5213A4AE8E7DFF8F89017F0FAF977
:103E5000043017F01CFAD9F8000010B10368DB68D1
:103E60009847D9F8000010B103681B689847DFF83D
:103E7000D880D8F8000010B103685B699847D7F87C
:103E80003C0110B103685B689847D8F8000010B196
:103E900003681B689847D7F83C0110B103689B681A
:103EA0009847E86800214FF0000B03685B6A984769
:103EB000234B0446C0F804B00360594680F808B0AC
:103EC000A86803685B6A9847064600F069FD686861
:103ED000594603685B6A98470546314600F03AFD4B
:103EE000C9F80040C7F83C51C8F80060E5B12B1D87
:103EF000CAF8003030463368C5F808A0DB68F563BF
:103F000098472B6828461B6898472146304618F08A
:103F100065FE236820461B699847236820465B6935
:103F200001B0BDE8F04F18472B46E1E7301E03080B
:103F3000BE1E0308BC1F030803200308A6200308B5
:103F4000C0210308A05401209C540120044B1B688D
:103F500093F858200AB1D86C00B99868704700BF30
:103F600060540120F8B5044617460E4617F030FAA3
:103F7000104B00251C6029460F4B23600F4BC4E9F2
:103F800051350F4B1868C4E953550368C4E94F55C0
:103F90009B68C4E955769847284600F049FCFFF72E
:103FA000D5FF20F094FCFFF7D1FF20F00BFD204659
:103FB000F8BD00BFAC5401206C2103085421030854
:103FC00060540120064BC0F84801C0F84C31002372
:103FD000C0F8503100F5A273C0F84031704700BFFF
:103FE000FD3D0008406A7047806A704770478B88C3
:103FF000C069DB0A0A6850F823001044704710B506
:10400000C2B1137BB3B1547BD27A240204F4E064CE
:104010001443026A98B202EB840213888B4202D1E5
:1040200092F9020010BD05D80138043280B2002890
:10403000F3D1F7E70020F5E710B504462C2127F06F
:10404000A0FF204610BD000030B58BB00446BDF87F
:1040500060500895BDF85C5007959DF85050069546
:104060009DF84C5005959DF8485004959DF8445096
:1040700003959DF8405002959DF83C500195BDF880
:104080003850009518F004FA064B20462360159B23
:10409000E361169B2362199B63621A9BA3620BB0B8
:1040A00030BD00BFE4210308704770477047704778
:1040B000704730B585B00368044601816D460146FE
:1040C000D3F884303C342846984795E8070084E8C4
:1040D000070005B030BD30B585B0036804464181A6
:1040E0006D460146D3F884303C342846984795E81D
:1040F000070084E8070005B030BD0022028042803E
:104100008280C280704780F836107047036870B5AF
:1041100004461B6B154698472368204629465B6E6C
:10412000BDE87040184700207047806C70477047AA
:104130007047704710B504464C2127F022FF2046F7
:1041400010BD10B504464FF4107127F01AFF204639
:1041500010BD08B5FFF708FB08BD0000036870B587
:104160005E6B0446114B8DB21B682BB9104B6C2152
:10417000104A114827F034FF1049828D0988914276
:1041800003D80F4B6D210B4AF3E713F812200D4BA8
:104190001B6853F8220003681B6B9847281A3346A4
:1041A00001B22046BDE87040184700BFB05401205E
:1041B0003C2203087E220308B9220308B4540120DC
:1041C00000230308B854012000224FF0FF31826021
:1041D000C0E900217047036870B504461B6B1546A3
:1041E00098472368204629465B6BBDE87040184716
:1041F00070B504461D46BDF91060FFF7ECFF23685B
:10420000294620469B6B9847236831462046DB6B46
:10421000BDE87040184700000022C0E90122C0E953
:104220000322C0E90522C0E907224FF4807282848C
:10423000014A0260704700BF8023030838B5044676
:104240000D462622002129F075FC2046FFF7E4FFE9
:10425000064B2046294623602B88E384FF2384F8FD
:10426000283015F0A4FA204638BD00BF184A0308CC
:1042700010B504462622002129F05CFC2046FFF7F9
:10428000CBFF0A4B4FF47F0220462360084BA3620A
:104290004FF6FF73A3850023C4E90C324FF0FF32C1
:1042A0002387E363C4E9102310BD00BF204903083E
:1042B000281E03082DE9F04F044600254FF6FF762F
:1042C000274604F16C0B04F1980A04F1C40904F5C3
:1042D0009E782DED048B89B018F0D4FAB14B2622CC
:1042E0002946E56347F8403B384629F023FC384629
:1042F000FFF792FFAC4B06A958462364FF23A5663F
:1043000084F86630ADF81860FFF798FF06A95046AC
:10431000ADF81860FFF792FF4846FFF7A9FFA34BDF
:1043200006A9C4F80C51C4F8C43004F58873ADF87C
:104330001860261D184609EE103AFFF77FFF404629
:10434000FFF796FF994BC4F88451C4F83C3104F54B
:10435000C473184608EE103AFFF78AFF04F5E873B5
:10436000184608EE903AFFF783FF4FF488732A4609
:104370003846294600934FF4F073FFF739FF4FF0AA
:104380007F4339463046A36602AF13F023FC2A462A
:1043900058462946FFF71FFF584606A9ADF81850A2
:1043A00015F005FA594630464FF0FF3B13F012FC6A
:1043B00052225046FC21FFF70EFF4FF007035046F4
:1043C00006A9ADF8183015F0F2F95146304613F051
:1043D00001FC5A238622FC2148460093942304F5CD
:1043E000067AFFF705FFD4F8C43049463846D3F8BB
:1043F0008430C4F8F4B0A4F8F850984704F58073FA
:1044000097E8070083E80700694B1B682BB9694BE5
:104410006021694A694827F0E3FD694B1B88052B39
:1044200003D8684B6121644AF4E7674B052118689B
:1044300000F03AFA654A03460A21504619F0B2FEE6
:104440000623C4F80CA14846DFF884A106A9ADF8FC
:104450001C30CDF818A015F0E3F84946304613F0AB
:10446000B9FB50223A2119EE100AFFF7B4FE4FF0C3
:10447000070206A919EE100AADF8182015F097F9F1
:1044800019EE101A304613F0A5FB5A2298233A2150
:1044900040460092862204F50B79FFF7A9FED4F876
:1044A0003C3141463846D3F88430C4F86CB1A4F8A6
:1044B0007051984704F5BC7397E8070083E807003C
:1044C0003B4A1368002BA2D03D4A1388032BA8D97E
:1044D0003D4B0321186800F0E7F93C4A03460A21E6
:1044E000484619F05FFE042306A94046C4F88491AB
:1044F000ADF81C30CDF818A015F092F841463046C2
:1045000013F068FB1B2218EE100A5021FFF763FE20
:1045100018EE101A3846C4F8B8B1A4F8BC5114F01B
:10452000D7FD04F5E27397E8070083E8070002234C
:1045300006A918EE100ACDF818A0ADF81C3015F039
:104540006FF818EE101A304613F044FB1B2218EED9
:10455000900A40F20911FFF73EFE18EE901A384615
:10456000C4F800B2A4F8045214F0B2FD04F50373C9
:1045700097E8070083E80700012306A918EE900AD0
:10458000CDF818A0ADF81C3015F04AF8304618EEFA
:10459000901A13F01FFB204609B0BDEC048BBDE858
:1045A000F08F00BF78240308B0490308E82303080C
:1045B000B05401203C2203083E230308B92203081B
:1045C000B454012000230308BC540120103D03080B
:1045D000281E03087047000030B5164D8FB02C68B8
:1045E000BFF35B8F14F0010421D1284627F0CBFCE8
:1045F000E8B12E23012210490993104B104808936B
:10460000104B0A940594CDE906430423CDE9033207
:104610000A230B220093CDE90B44CDE90144FFF7B7
:1046200013FD094827F0FAFC284627F0B8FC044897
:104630000FB030BD9C210020B4BD0790A4520308E8
:10464000A0210020D8520308D5450008704700007B
:1046500030B5174D8FB02C68BFF35B8F14F0010499
:1046600022D1284627F08FFCF0B12E2301221149D8
:104670000993114B11480893114B0A940594CDE905
:1046800006430423CDE9033228231122009330236B
:10469000CDE90B44CDE90144FFF7D6FC094827F0EA
:1046A000BDFC284627F07BFC04480FB030BD00BF9E
:1046B000CC21002050BE0790A8520308D021002032
:1046C000DC5203084D4600087047000030B5174D16
:1046D0008FB02C68BFF35B8F14F0010422D1284601
:1046E00027F051FCF0B12E23122211490993114BEE
:1046F00011480893114B0A940793012301940493E2
:10470000CDE905430423CDE902435023CDE90B4411
:1047100000935123FFF798FC094827F07FFC2846B7
:1047200027F03DFC04480FB030BD00BFFC21002045
:1047300040BF0790BC52030800220020E05203084B
:10474000C946000800207047002070470EB403B52A
:1047500003AB002153F8042B019317F0C1FC02B006
:104760005DF804EB03B070470CB407B504AB53F825
:10477000042B019317F0B4FC03B05DF804EB02B016
:1047800070470000436C10B5044673B3038F2BB918
:10479000184BC521184A194827F022FCC38E00EB9C
:1047A00043035B8C0BB318F049FF238F012B03D815
:1047B000134BCB21134AEEE7E28E40F63F10531C19
:1047C0009BB2092B194688BFA3F10A0104EB4101F2
:1047D000498C814209D10A2B04EB420228BF0023F5
:1047E000508C04EB4303588451842046BDE81040AC
:1047F00018F026BEA4240308AD2403085825030896
:10480000A2250308B025030818F0E3BD10B586B053
:1048100002AC84E806001A460AAB214605930193D0
:10482000099B0093089B16F0ABF806B010BD000082
:1048300038B518BB124B13481C681349B4B1226831
:1048400022440260626822440A60A26814440F4B4A
:1048500000221A8000F038F8054600F033F80C4BBF
:104860001C600C4B1D600C4B188007E00B4B036069
:104870000B4B0B600B4B1C68002CE8D138BD00BF04
:104880002C22002030220020342200203822002058
:10489000B0540120B8540120B454012058C00790EE
:1048A0003CC0079094C00790044B1B6853F821004C
:1048B000034B1B6803EB4000704700BF342200200D
:1048C0003022002007207047004870473C2200201B
:1048D00010B5054CFFF7FAFE2060FFF7B9FE6060E7
:1048E000FFF77AFEA06010BD3C220020704710B593
:1048F00004464FF4AE7127F044FB204610BD10B5BE
:104900000446D0F8580100F0E1F82046BDE8104018
:1049100016F01ABD10B50446FFF724FB014B2046E4
:10492000236010BD8C260308704704387047704719
:10493000C06803685B6B1847A0F10400FFF7F8BF7D
:1049400010B50446102127F01CFB204610BDA0F135
:104950000400F5E70022C1608260044A10B502F14C
:10496000080424320460426010BD00BFD82603084A
:1049700070470000034B10B504460360FFF7D7FBF8
:10498000204610BD1027030810B50446FFF7F2FFBC
:104990004FF41171204627F0F4FA204610BD0000B4
:1049A00010B50446FFF786FC014B2046236010BD7E
:1049B00010270308FFF7BCBBD0F840320A21084A91
:1049C000013310B50446C0F8403200F5067019F006
:1049D000E9FB04F1C400BDE8104017F0ACBC00BF17
:1049E0006E3A0308D0F840320A21084A013B10B55C
:1049F0000446C0F8403200F5067019F0D3FB04F10C
:104A0000C400BDE8104017F096BC00BF6E3A030822
:104A100030B51546044608462DED028B83B027F0CD
:104A200003FB51EC100BFCF7FFF808EE900A284648
:104A300027F0FAFA51EC100BFCF7F6F8F3EE0C7ACB
:104A400008EE100A1A4B0A2104F50670F4EEE78A04
:104A5000DFED187ACDED018AF1EE10FAB4EEE78AB7
:104A6000CCBF1A464FF0FF22F1EE10FAC4F8F42042
:104A7000114AD8BF4FF0FF23C4F86C3101AB19F0D5
:104A80007BFD04F1C40017F056FC01AB0A4A0A2171
:104A900004F50B708DED018A19F06EFD04F59E7022
:104AA00003B0BDEC028BBDE8304017F044BC00BF42
:104AB0000000FFFF00008242880403080022026019
:104AC0007047006803689B681847000010B5002312
:104AD00086B004460D481A4601A9006803F0E6FEB8
:104AE00088B90B4828F026FF01A90A4828F0BCFE27
:104AF0000DF10E01084828F0B7FE0DF10E0201A9D4
:104B00002046FFF7DEFF06B010BD00BFAC610120FC
:104B100048270308532703086A27030810B444688A
:104B2000C068A4465DF8044B604710B40468C068D0
:104B3000A4465DF8044B604737B501230D4601AA32
:104B400020210446FFF7EAFF58B99DF8043001AA76
:104B50002021204665F301038DF804300123FFF77F
:104B6000E4FF03B030BD37B501230D4601AA202173
:104B70000446FFF7D3FF58B99DF8043001AA20215D
:104B8000204665F382038DF804300123FFF7CDFF43
:104B900003B030BD37B501230D4601AA21210446DB
:104BA000FFF7BCFF58B99DF8043001AA2121204627
:104BB00065F300038DF804300123FFF7B6FF03B05F
:104BC00030BD13B502230C4601AA2821FFF7A6FF2A
:104BD0009DF805209DF8043003EB0223238002B0EA
:104BE00010BD13B502230C4601AA2A21FFF796FF38
:104BF0009DF805209DF8043003EB0223238002B0CA
:104C000010BD0A460F2108B50123FFF787FF08BD35
:104C100037B501230D4601AA20210446FFF77EFF88
:104C200058B99DF8043001AA2021204665F3C71326
:104C30008DF804300123FFF778FF03B030BD37B59E
:104C400001230D4601AA22210446FFF767FF58B948
:104C50009DF8043001AA2221204665F382038DF8D5
:104C600004300123FFF761FF03B030BD13B501230A
:104C70000C460DF107023021FFF750FF9DF8073079
:104C800007EE903AFAEEEF7AC4ED007A02B010BD6A
:104C900013B501230C460DF107023121FFF73EFF4A
:104CA0009DF8073007EE903AFAEEEF7AC4ED007AFD
:104CB00002B010BD37B501230C460DF107023221B9
:104CC0000546FFF72BFF98B9012301AA3521284695
:104CD000FFF724FF9DF804209DF8073002F003023F
:104CE00003EB022307EE903AFAEEEE7AC4ED007A77
:104CF00003B030BD37B501230C460DF10702332157
:104D00000546FFF70BFF98B9012301AA3521284674
:104D1000FFF704FF9DF804209DF80730C2F38102DD
:104D200003EB022307EE903AFAEEEE7AC4ED007A36
:104D300003B030BD13B502230C4601AA3621FFF79C
:104D4000EDFE9DF805209DF8043003EB02231BB215
:104D500007EE903AF8EEE77AC4ED007A02B010BDA3
:104D600013B502230C4601AA3A21FFF7D7FE9DF89E
:104D700005209DF8043003EB02231BB207EE903AA6
:104D8000F8EEE77AC4ED007A02B010BD13B5022345
:104D90000C4601AA3C21FFF7C1FE9DF805209DF8B5
:104DA000043003EB02231BB207EE903AF8EEE77AE9
:104DB000C4ED007A02B010BD13B502230C4601AA5F
:104DC0003E21FFF7ABFE9DF805209DF8043003EB74
:104DD00002231BB207EE903AF8EEE77AC4ED007AB0
:104DE00002B010BD00B54FF4807295B04FF08071E5
:104DF00003460C9205220F91012106920022019197
:104E00000B92139200920B48CDE90312CDE90D22CB
:104E1000CDE91122102206A902924FF480020592D8
:104E20006A4601F079FD003818BF012015B05DF821
:104E300004FB00BF806E012000B54FF4807395B075
:104E400041F2883217480C93062306A906930023E3
:104E5000CDE90D330F930B931393CDE9113301F08B
:104E600018FDE0B9022301224FF4800104900D489F
:104E7000CDE900331023CDE9023205236A46CDE99E
:104E800005134FF0807306A90F9341F2883301F0A8
:104E900043FD003818BF012015B05DF804FB012068
:104EA000FAE700BF806E012000B54FF4807391B027
:104EB0004FF040720E480893EB2302A902934FF47F
:104EC000406309934FF4005305930023CDE90A3260
:104ED0000A220F9307926A46CDE90D33CDE90033DC
:104EE00001F06AFD003818BF012011B05DF804FB25
:104EF000806E0120454B012145489A6B42F0020229
:104F0000F0B59A638DB09A6B09240427002602F04D
:104F10000202404D0092009A9A6942F002029A61A0
:104F20009A6922F002029A611A6B42F002021A6335
:104F30001A6B02F002020192019A1A6B42F002020D
:104F40001A631A6B02F002020292029A1A6B42F082
:104F500008021A631A6B02F008020392039A1A6B92
:104F600042F008021A631A6B02F008020492049AD3
:104F70001A6B42F010021A631A6B02F010020592CB
:104F8000059A1A6B42F008021A6340221B6B03F069
:104F900008030693069B0223CDE907230323CDE9EB
:104FA00009130A2307A90B9300F03CFC07A9184832
:104FB000079709960B9400F035FC4FF4006307A99E
:104FC00028460B94079300F02DFC4FF4805307A95B
:104FD00028460B94079300F025FC07A90E48079775
:104FE0000B9400F01FFC4FF4005307A928460B94C4
:104FF000079300F017FC32460F215C2000F0D8F92F
:105000005C2000F007FA0DB0F0BD00BF0038024090
:1050100000040240000C024000100240F0B5494C70
:1050200091B0494B2046236001F020FC054610B1A9
:10503000012011B0F0BD01462046FFF75BFF0126BD
:1050400004234FF08077C4E901631023E36097FAEB
:10505000A7F3B3FA83F32046013B23614FF4A06327
:10506000C4E90755C4E9053501F0ACFB0028DFD1E0
:105070004FF4807566230B9041F28832079002A9A5
:105080000F9008950293CDE90900CDE90D00204667
:1050900001F0FFFB08B10420CBE7992341F28832ED
:1050A00002A92046029301F0F4FB0028F3D141F25B
:1050B0008830FFF797FE0028EDD18523079041F255
:1050C000883202A9089502930B97CDE90900CDE932
:1050D0000C60CDE90E00204601F0DBFB0028DAD1A0
:1050E00041F288320DF10701204601F04BFD002806
:1050F000D1D1FFF7A1FE0028CDD18123F022029368
:1051000092FAA2F20A219DF80730B2FA82F2204602
:1051100003F00F0301FA02F202A9134341F28832AD
:105120008DF8073001F0B5FB0028B4D141F2883288
:105130000DF10701204601F0C9FC00283FF479AFCA
:10514000A9E700BF806E0120001000A00F490020D9
:10515000D1F8883043F47003C1F888300C4B1A68DA
:1051600042F001021A6098601A6822F0847222F4F8
:1051700080321A60074A5A601A6822F480221A6044
:10518000D8604FF000638B60704700BF00ED00E017
:1051900000380240103000247047002070470000A3
:1051A000002337B58DF807300D4B1A780AB9012264
:1051B0001A700324C5B2013CA8212846FDF736F930
:1051C00014F0FF048DF807009DF80730DBB203D11F
:1051D0009DF8070003B030BD512BECD1F8E700BFBC
:1051E0004A22002013B500240221C0B28DF80740E6
:1051F000FDF71CF98DF807009DF8073003F00F0349
:105200008DF807309DF80730052B01D98DF8074040
:105210009DF80720034B9DF807005A7000229A70F2
:1052200002B010BD4A2200202DE9F74F2F4C154641
:105230004FF000080F46A37862788DF807809A42F5
:105240004DD9092B4ED803EB43035B00DBB2191D8C
:1052500003F1030B03F1060A0533C9B25FFA8BFBB6
:105260005FFA8AFA5FFA83F8C6B2DFF884903046B4
:10527000FDF7DCF88DF807009DF8073059463046F9
:10528000A9F80030FDF7D2F88DF8070051469DF8D7
:1052900007303046B9F800201B0203F47063134353
:1052A0003B80A9F80030FDF7C1F88DF807004146B2
:1052B0009DF807303046A9F80030FDF7B7F88DF8B3
:1052C00007009DF80730B9F800201B0203F4706353
:1052D0001343A9F800302B80A3780133A37003B0E7
:1052E000BDE8F08FC246C3464146BDE74A220020D2
:1052F000482200200122A421C0B2FDF77DB800227F
:10530000A421C0B2FDF778B8FFF7F9BF70470000DD
:10531000024B1A780AB901221A7070474A220020FB
:10532000074A032008B5136843F48073136000F044
:105330002DF80020FCF7D4FDFCF792FA002008BD00
:10534000003C0240034A044B11681B780B44136075
:10535000704700BFCC6E012038000020014B186858
:10536000704700BFCC6E012038B50446FFF7F6FF4A
:105370000546631C1EBF044B1B78E418FFF7EEFFC5
:10538000431BA342FAD338BD38000020074903026B
:10539000CA6803F4E06322F4E0621204120C1343BF
:1053A00043F0BF6343F40033CB60704700ED00E08F
:1053B000164B30B5DC68C4F30224C4F10703251D85
:1053C000042B28BF0423062D4FF0FF358CBF033C70
:1053D000002405FA03F3002805FA04F521EA030383
:1053E00022EA050203FA04F343EA02034FEA031335
:1053F000DBB206DB00F1604000F5614080F800336D
:1054000030BD00F00F00024A1354F9E700ED00E050
:1054100014ED00E0002807DB4109012300F01F0024
:10542000024A834042F82130704700BF00E100E0AB
:1054300000280CDB4309012200F01F00044920333F
:10544000824041F82320BFF34F8FBFF36F8F704727
:1054500000E100E0BFF35F8F044B5A6A22F4803210
:105460005A620022C3F89420704700BF00ED00E0AC
:10547000064B40F00100C3F894005A6A42F48032AF
:105480005A62BFF34F8FBFF36F8F704700ED00E09C
:105490004378144A10B5C2F898300178E9B14368EE
:1054A000C2F89C30C37A047B1B0643EA04730B43A7
:1054B000817A43EAC143417B43EA8143817B43EAEA
:1054C0004143C17B43EA0143417A43EA0123017A24
:1054D00043EA4103C2F8A03010BDC2F89C10C2F8E4
:1054E000A010F9E700ED00E010B5044608B901206E
:1054F00010BD437F03F0FF0213B90277FCF7CEF92A
:10550000022363772379E3B92368134A5A619A68BF
:1055100022F018029A6062792368D2B94FF0FF3204
:105520001A6100209A68616922F060020A43A16949
:105530009A609A6822F080020A439A600123637796
:10554000D6E7D4E90212204600F008F80028E2D09D
:10555000CDE72269E4E700BFB71DC1041F2310B5E2
:10556000013B1CD321FA03F4E407F9D5102A12D029
:1055700004D83AB1082A10D001200BE0182AFBD138
:10558000062BF9D800684161836823F018031343A0
:105590008360002010BD072BF3E70F2BF1E7002AF3
:1055A000EAD1EFE770B50446866DFFF7D7FE0546F2
:1055B00094F83530022B06D0802301206365002348
:1055C00084F8343070BD23681A6822F016021A601D
:1055D0005A6922F080025A61226C0AB9A26C1AB18F
:1055E0001A6822F008021A601A6822F001021A6092
:1055F00023681B6813F0010308D1E16D3F221846B0
:105600008A40B260012284F83520D8E7FFF7A6FE71
:10561000401B0528ECD920230320636584F835005E
:10562000CDE710B5044630B390F8393003F0FF02EF
:105630001BB980F83820FCF747F92268022361681B
:10564000002084F83930136823F440330B43A168F9
:105650001360536B23F007030B43E1685363136C30
:1056600023F47F5323F03F030B4313640123E063D0
:1056700084F8393010BD0120FCE77047704703689B
:1056800070B55E6804461D68F20714D5E90512D5A9
:105690001A6822F480721A60C26B42F00102C2637F
:1056A00001229A60042380F83930002380F83830D2
:1056B000436903B19847B20616D5AB0414D52368E5
:1056C0001A6822F400521A6020229A60E36B43F0B9
:1056D0000203E363042384F83930002384F838306C
:1056E00063690BB120469847300716D5290514D5B4
:1056F00023681A6822F400621A6008229A60E36B39
:1057000043F00403E363042384F83930002384F86E
:10571000383063690BB12046984772070BD56B058B
:1057200009D5236820461A6822F480621A60042290
:105730009A60FFF7A2FFB00714D5A90512D5236818
:105740001A6822F400721A6002229A60E36BE36323
:10575000012384F83930002384F8383023690BB1F1
:1057600020469847F20613D5EB0411D5236820464E
:105770001A6822F480521A6010229A60E36BE36385
:10578000012384F83930002384F83830FFF776FF9E
:1057900070BD0000F0B590F83830012B4FF00203D7
:1057A0002BD080F83930012200EB01131C4F80F818
:1057B00038200E015D6AD3E9074244EA0242093CFF
:1057C000012C96BF05F07F4342EA05621A43036845
:1057D000A9B9596A012C01EA070142EA01025A6299
:1057E00082699A6103D8426A22F07F429A62012359
:1057F00080F83930002380F838301846F0BDD96978
:10580000012C01EA070142EA0102DA6100EB06021B
:1058100092691A61EBD825F07F451D62E7E700BF6A
:10582000F0FFFC002DE9F74F0023DFF8B8916B4A39
:1058300001240D689C4004EA050CAC4340F0B480A0
:105840004D684FEA4308032605F0030406FA08F6FC
:10585000671EF643012F34D8876807EA060ECF6823
:1058600007FA08F747EA0E078760476827EA0C0E31
:10587000C5F300179F4047EA0E074760C768022C30
:1058800007EA060E8F6807FA08F747EA0E07C760AF
:1058900019D14FEAD30A03F0070B4FF00F0E00EBBC
:1058A0008A0A4FEA8B0BDAF820700EFA0BFE27EA11
:1058B0000E0E0F6907FA0BF747EA0E07CAF82070B9
:1058C00001E0032CDAD1076804FA08F415F4403F2C
:1058D00007EA060744EA0704046065D0D9F84440A3
:1058E00023F0030603F0030744F4804406F18046E6
:1058F000BF00C9F8444006F59C36D9F8444004F48A
:1059000080440194019C0F24D6F808E0BC402EEAA4
:10591000040E334CA0424ED004F58064A0424CD01B
:1059200004F58064A0424AD004F58064A04248D0C7
:1059300004F58064A04246D004F58064A04244D0BF
:1059400004F58064A04242D004F58064A04240D0B7
:1059500004F58064A0423ED004F58064A0420CBFF0
:1059600009240A24BC40EF0244EA0E04B4606FEA42
:105970000C06946854BF34404CEA0404AF029460AF
:10598000D46854BF34404CEA0404AF03D460546874
:1059900054BF34404CEA0404ED035460146854BF0F
:1059A00034404CEA040414600133102B7FF440AF00
:1059B00003B0BDE8F08F0024D4E70124D2E702242D
:1059C000D0E70324CEE70424CCE70524CAE7062465
:1059D000C8E70724C6E70824C4E700BF003C01402D
:1059E00000000240003802402DE9F04F0022494CEF
:1059F000DFF82891DFF828A1DFF828B1012303FAA6
:105A000002FE3EEA01050EEA01076CD122F0030511
:105A100002F0030C0F26404B05F180454FEA8C0C39
:105A2000984205F59C3506FA0CF6D5F8088006EA8A
:105A300008085DD003F5806398425BD003F580636E
:105A4000984259D003F58063984257D003F580639C
:105A5000984255D0484555D0504555D0584555D019
:105A600003F58053984253D003F5806398420CBFEE
:105A700009230A2303FA0CF3434513D1236823EACD
:105A800007032360636823EA07036360E36823EA8C
:105A90000703E360A36823EA0703A360AB6823EA74
:105AA0000603AB6056000323056802F0070CB34001
:105AB0000F274FEA8C0C25EA030507FA0CF705605F
:105AC000D50800EB85052E6A26EA07062E62C56812
:105AD00025EA0305C560456825EA0E054560856829
