:020000040800F2
:1000000000000520B91B0008D51A0008D71A0008FF
:10001000D91A0008DB1A0008DD1A000800000000E9
:10002000000000000000000000000000417C00080B
:10003000DF1A000800000000E17C0008457D000890
:10004000091C0008091C0008091C0008091C0008FC
:10005000091C0008091C0008091C0008091C0008EC
:10006000091C0008091C0008091C0008091C0008DC
:10007000091C0008091C0008091C0008091C0008CC
:10008000091C0008091C0008091C0008091C0008BC
:10009000091C0008091C0008091C0008091C0008AC
:1000A000091C0008091C0008091C0008091C00089C
:1000B000091C0008091C0008091C0008091C00088C
:1000C000091C0008091C0008091C0008091C00087C
:1000D000091C0008091C0008091C0008091C00086C
:1000E000091C0008091C0008091C0008091C00085C
:1000F000091C0008091C0008091C0008091C00084C
:10010000091C0008091C0008091C0008091C00083B
:10011000091C0008091C0008E11A0008091C000855
:10012000091C0008091C0008091C0008091C00081B
:10013000091C0008091C0008091C0008091C00080B
:10014000091C0008091C0008091C0008091C0008FB
:10015000091C0008091C0008091C0008091C0008EB
:10016000091C0008091C0008091C0008091C0008DB
:10017000091C0008091C0008091C000800000000F8
:10018000091C0008091C0008091C0008091C0008BB
:10019000091C0008091C0008091C0008091C0008AB
:1001A000ED1A0008091C0008F91A0008091C0008CB
:1001B000091C0008091C0008091C0008091C00088B
:0801C000091C0008091C0008DD
:1001D00010B5054C237833B9044B13B10448AFF381
:1001E00000800123237010BD2401002000000000C6
:1001F00094BC020808B5034B1BB103490348AFF395
:10020000008008BD000000002801002094BC020806
:1002100001F0FF01102A2BDB10F0070F08D010F8B7
:10022000013B013A8B422DD010F0070F42B3F6D1BB
:10023000F0B441EA012141EA014122F007047FF0D4
:1002400000070023F0E80256083C85EA010586EA2B
:10025000010685FA47F5A3FA87F586FA47F6A5FA67
:1002600087F68EB9EED1F0BC01F0FF0102F0070273
:1002700032B110F8013B013A83EA010313B1F8D11E
:100280000020704701387047002D06BF35460338FF
:10029000073815F0010F07D1013015F4807F02BF38
:1002A000013015F4C03F0130F0BC0138704700BF89
:1002B00081F0004102E000BF83F0004330B54FEA17
:1002C00041044FEA430594EA050F08BF90EA020F84
:1002D0001FBF54EA000C55EA020C7FEA645C7FEA17
:1002E000655C00F0E2804FEA5454D4EB5555B8BF3A
:1002F0006D420CDD2C4480EA020281EA030382EAAB
:10030000000083EA010180EA020281EA0303362D3C
:1003100088BF30BD11F0004F4FEA01314FF4801C0F
:100320004CEA113102D0404261EB410113F0004F21
:100330004FEA03334CEA133302D0524263EB4303D8
:1003400094EA050F00F0A780A4F10104D5F1200E76
:100350000DDB02FA0EFC22FA05F2801841F10001D1
:1003600003FA0EF2801843FA05F359410EE0A5F1A5
:1003700020050EF1200E012A03FA0EFC28BF4CF0D6
:10038000020C43FA05F3C01851EBE37101F000458C
:1003900007D54FF0000EDCF1000C7EEB00006EEB99
:1003A0000101B1F5801F1BD3B1F5001F0CD3490823
:1003B0005FEA30004FEA3C0C04F101044FEA44527A
:1003C00012F5800F80F09A80BCF1004F08BF5FEA01
:1003D000500C50F1000041EB045141EA050130BDE1
:1003E0005FEA4C0C404141EB0101013C28BFB1F5F3
:1003F000801FE9D291F0000F04BF01460020B1FA3E
:1004000081F308BF2033A3F10B03B3F120020CDA10
:100410000C3208DD02F1140CC2F10C0201FA0CF0EE
:1004200021FA02F10CE002F11402D8BFC2F1200C53
:1004300001FA02F120FA0CFCDCBF41EA0C01904009
:10044000E41AA2BF01EB0451294330BD6FEA040452
:100450001F3C1CDA0C340EDC04F11404C4F120023D
:1004600020FA04F001FA02F340EA030021FA04F34F
:1004700045EA030130BDC4F10C04C4F1200220FAA6
:1004800002F001FA04F340EA0300294630BD21FAE4
:1004900004F0294630BD94F0000F83F4801306BFAA
:1004A00081F480110134013D4EE77FEA645C18BF9E
:1004B0007FEA655C29D094EA050F08BF90EA020F35
:1004C00005D054EA000C04BF1946104630BD91EA2D
:1004D000030F1EBF0021002030BD5FEA545C05D130
:1004E0004000494128BF41F0004130BD14F580046F
:1004F0003CBF01F5801130BD01F0004545F0FE41E3
:1005000041F470014FF0000030BD7FEA645C1ABF17
:10051000194610467FEA655C1CBF0B46024650EA4E
:10052000013406BF52EA033591EA030F41F400217A
:1005300030BD00BF90F0000F04BF0021704730B500
:100540004FF4806404F132044FF000054FF00001D5
:1005500050E700BF90F0000F04BF0021704730B596
:100560004FF4806404F1320410F0004548BF40426B
:100570004FF000013EE700BF42004FEAE2014FEAC0
:1005800031014FEA02701FBF12F07F4393F07F4F9B
:1005900081F06051704732F07F4208BF704793F09E
:1005A0007F4F04BF41F40021704730B54FF46074B1
:1005B00001F0004521F000411CE700BF50EA0102B4
:1005C00008BF704730B54FF000050AE050EA01025D
:1005D00008BF704730B511F0004502D5404261EBCD
:1005E00041014FF4806404F132045FEA915C3FF40E
:1005F000D8AE4FF003025FEADC0C18BF03325FEAAB
:10060000DC0C18BF033202EBDC02C2F1200300FA5B
:1006100003FC20FA02F001FA03FE40EA0E0021FA80
:1006200002F11444BDE600BF70B54FF0FF0C4CF46E
:10063000E06C1CEA11541DBF1CEA135594EA0C0F20
:1006400095EA0C0F00F0DEF82C4481EA030621EA5B
:100650004C5123EA4C5350EA013518BF52EA033596
:1006600041F4801143F4801338D0A0FB02CE4FF048
:100670000005E1FB02E506F00042E0FB03E54FF078
:100680000006E1FB03569CF0000F18BF4EF0010E70
:10069000A4F1FF04B6F5007F64F5407404D25FEA6C
:1006A0004E0E6D4146EB060642EAC62141EA55511F
:1006B0004FEAC52040EA5E504FEACE2EB4F1FD0C61
:1006C00088BFBCF5E06F1ED8BEF1004F08BF5FEADF
:1006D000500E50F1000041EB045170BD06F0004691
:1006E00046EA010140EA020081EA0301B4EB5C043E
:1006F000C2BFD4EB0C0541EA045170BD41F4801136
:100700004FF0000E013C00F3AB8014F1360FDEBF5A
:10071000002001F0004170BDC4F10004203C35DA36
:100720000C341BDC04F11404C4F1200500FA05F3B9
:1007300020FA04F001FA05F240EA020001F000425A
:1007400021F0004110EBD37021FA04F642EB0601D0
:100750005EEA430E08BF20EAD37070BDC4F10C04FA
:10076000C4F1200500FA04F320FA05F001FA04F2BE
:1007700040EA020001F0004110EBD37041F10001AA
:100780005EEA430E08BF20EAD37070BDC4F12005B5
:1007900000FA05F24EEA020E20FA04F301FA05F21D
:1007A00043EA020321FA04F001F0004121FA04F2C5
:1007B00020EA020000EBD3705EEA430E08BF20EA95
:1007C000D37070BD94F0000F0FD101F000464000CF
:1007D00041EB010111F4801F08BF013CF7D041EA51
:1007E000060195F0000F18BF704703F00046520055
:1007F00043EB030313F4801F08BF013DF7D043EA26
:100800000603704794EA0C0F0CEA135518BF95EADB
:100810000C0F0CD050EA410618BF52EA4306D1D162
:1008200081EA030101F000414FF0000070BD50EA81
:10083000410606BF1046194652EA430619D094EA0B
:100840000C0F02D150EA013613D195EA0C0F05D1F5
:1008500052EA03361CBF104619460AD181EA030149
:1008600001F0004141F0FE4141F470014FF0000001
:1008700070BD41F0FE4141F4780170BD70B54FF09C
:10088000FF0C4CF4E06C1CEA11541DBF1CEA13551C
:1008900094EA0C0F95EA0C0F00F0A7F8A4EB0504FE
:1008A00081EA030E52EA03354FEA013100F08880F5
:1008B0004FEA03334FF0805545EA131343EA1263BE
:1008C0004FEA022245EA111545EA10654FEA002673
:1008D0000EF000419D4208BF964244F1FD0404F52C
:1008E000407402D25B084FEA3202B61A65EB030588
:1008F0005B084FEA32024FF480104FF4002CB6EB45
:10090000020E75EB030E22BFB61A754640EA0C00C4
:100910005B084FEA3202B6EB020E75EB030E22BF04
:10092000B61A754640EA5C005B084FEA3202B6EB45
:10093000020E75EB030E22BFB61A754640EA9C0004
:100940005B084FEA3202B6EB020E75EB030E22BFD4
:10095000B61A754640EADC0055EA060E18D04FEA92
:10096000051545EA16754FEA06164FEAC30343EA32
:1009700052734FEAC2025FEA1C1CC0D111F4801FFF
:100980000BD141EA00014FF000004FF0004CB6E7F8
:1009900011F4801F04BF01430020B4F1FD0C88BF97
:1009A000BCF5E06F3FF6AFAEB5EB030C04BFB6EBA2
:1009B000020C5FEA500C50F1000041EB045170BD95
:1009C0000EF0004E4EEA113114EB5C04C2BFD4EBC2
:1009D0000C0541EA045170BD41F480114FF0000E46
:1009E000013C90E645EA060E8DE60CEA135594EAC2
:1009F0000C0F08BF95EA0C0F3FF43BAF94EA0C0FC5
:100A00000AD150EA01347FF434AF95EA0C0F7FF439
:100A100025AF104619462CE795EA0C0F06D152EA8D
:100A200003353FF4FDAE1046194622E750EA410671
:100A300018BF52EA43067FF4C5AE50EA41047FF482
:100A40000DAF52EA43057FF4EBAE12E74FEA4102E5
:100A5000B2F1E04324BFB3F5001CDCF1FE5C0DD91C
:100A600001F0004C4FEAC0024CEA5070B2F1004F66
:100A700040EB830008BF20F00100704711F0804F69
:100A800021D113F13872BCBF01F00040704741F42E
:100A900080114FEA5252C2F11802C2F1200C10FA32
:100AA0000CF320FA02F018BF40F001004FEAC12316
:100AB0004FEAD32303FA0CFC40EA0C0023FA02F3BA
:100AC0004FEA4303CCE77FEA625307D150EA013390
:100AD0001EBF4FF0FE4040F44000704701F0004060
:100AE00040F0FE4040F40000704700BF53B94AB9DF
:100AF000002908BF00281CBF4FF0FF314FF0FF3026
:100B000000F070B9ADF1080C6DE904CE00F006F804
:100B1000DDF804E0DDE9022304B070472DE9F04779
:100B2000089E0D4604460F46002B4AD18A42944641
:100B300065D9B2FA82F343B102FA03FCC3F1200291
:100B40009F4020FA02F217439C404FEA1C4E1FFAC6
:100B50008CF5B7FBFEF1220C0EFB117742EA07423F
:100B600001FB05F090420AD91CEB020201F1FF37AC
:100B700080F01C81904240F2198102396244121ABD
:100B8000A4B2B2FBFEF00EFB102244EA024400FBCA
:100B900005F5A5420AD91CEB040400F1FF3280F0F0
:100BA0000781A54240F204816444023840EA0140D2
:100BB000641B00211EB1DC400023C6E90043BDE8F0
:100BC000F0878B4208D9002E00F0ED800021C6E9A5
:100BD00000050846BDE8F087B3FA83F1002949D142
:100BE000AB4202D3824200F2F880841A65EB030222
:100BF00001201746002EE2D0C6E90047DFE702B920
:100C0000FFDEB2FA82F3002B40F090808A1A4FEA9E
:100C10001C471FFA8CFE0121B2FBF7F507FB1520DC
:100C2000220C42EA00420EFB05F0904208D91CEB70
:100C3000020205F1FF3802D2904200F2CB80454615
:100C4000121AA4B2B2FBF7F007FB102244EA0244E6
:100C50000EFB00FEA64508D91CEB040400F1FF3290
:100C600002D2A64500F2BB801046A4EB0E0440EA77
:100C700005409FE7C1F120078B4022FA07FC4CEAB0
:100C8000030C05FA01F420FA07F3FD404FEA1C4972
:100C90002343B5FBF9F81FFA8CFE09FB18551C0C11
:100CA00044EA054408FB0EF5A54202FA01F200FAF7
:100CB00001F00BD91CEB040408F1FF3A80F08880A6
:100CC000A54240F28580A8F102086444641B9DB2ED
:100CD000B4FBF9F309FB134445EA044403FB0EFE9D
:100CE000A64508D91CEB040403F1FF356CD2A645D8
:100CF0006AD9023B644443EA0843A3FB0295A4EB90
:100D00000E04AC42C846AE4656D353D056B1B0EBF3
:100D1000080264EB0E0404FA07F7CA40CC401743FC
:100D2000C6E9007418460021BDE8F087C3F1200130
:100D300002FA03FC20FA01F225FA01F19D402A4350
:100D40004FEA1C471FFA8CFEB1FBF7F007FB1015AA
:100D5000110C41EA054100FB0EF58D4204FA03F443
:100D600008D91CEB010100F1FF382FD28D422DD99B
:100D700002386144491B92B2B1FBF7F507FB15112C
:100D800042EA014205FB0EF1914208D91CEB020236
:100D900005F1FF3816D2914214D9023D6244521A2D
:100DA00045EA004138E73146304608E73946E6E68D
:100DB0001046FBE64845A9D2B9EB020865EB0C0EDC
:100DC000013BA3E74546EAE72B4694E74046D1E7D7
:100DD000D0467BE7023D624432E708460AE76444B6
:100DE000023842E7704700BF0149002008F03CB9D3
:100DF000B5200008012B1FB588BF41F080014FF4DA
:100E00007A7400920A46BF21CDE90134012304F02F
:100E1000F5FB04B010BD012B1FB588BF41F0800168
:100E20004FF47A7400920A46BF21CDE901340123C0
:100E300004F0BEFC04B010BD08B5642006F010FB41
:100E4000FBE790ED017AD0ED037AD0ED006A37EE42
:100E5000C76A90ED020A66EEE77AE7EE007A07EEDF
:100E6000101A30EE660AB8EEC77AE6EE077A87EE19
:100E7000800A704710B594B01022002102240AA8FD
:100E800029F0BEFF1422002103A829F0B9FF1D4B51
:100E9000192108A81A6C42F080521A641B6C03F0E6
:100EA00080530193019B184B1A6842F440421A6028
:100EB00001221B6803F440430293029B4FF48033EA
:100EC000CDE908234FF48003CDE90E434FF4D873E6
:100ED000CDE91244CDE9101305F088FA04F02AFF99
:100EE0000F2300200721CDE903344FF4A053CDE9AF
:100EF00005034FF4805303A8079305F05FFC14B07B
:100F000010BD00BF00380240007000404FF0604349
:100F1000D3F8802ED1070AD5D3F8002ED20701D4FA
:100F2000704700BF1A68002AFBD0C2B21A7070471F
:100F300038B5214D0024214829462C7003F042FA8F
:100F40002B78BC2B35D101211C4803F004FA032176
:100F50001A4803F0E9F92146184803F0B7F9214689
:100F6000164803F0CAF90121144803F032FA144973
:100F7000124803F0B0FA1349104803F048FA124936
:100F80000E4803F0BEFA11490C4803F052FA10491A
:100F90000A4803F0CCFA0F49084803F05CFA0E49FE
:100FA000064803F0DAFA0D49044803F074FA2046C3
:100FB00038BD0120FCE700BFC803002090030020DB
:100FC000A4030020A8030020AC030020B0030020ED
:100FD000B4030020B8030020BC030020C00300209D
:100FE0002DE980489BB01022002101250DA84FF06B
:100FF000104629F005FF002403F0FEFDC64B0DA8A6
:10100000ADF834501094CDE90E6303F013FE1723AE
:101010000DA88DF835508DF83C308DF8425003F016
:1010200009FE042003F0F6FDBFF34F8FBFF36F8F6F
:10103000BA4AC2F85042BFF34F8FBFF36F8F536964
:1010400043F400335361BFF34F8FBFF36F8FC2F888
:101050008440BFF34F8FD2F8803043F6E074C3F37F
:10106000C900C3F34E335B0103EA0406014646EAB6
:1010700081750139C2F86052F9D2203B13F1200F7B
:10108000F2D1BFF34F8F536943F480335361BFF301
:101090004F8FBFF36F8F03F015FD0024FFF7EAFEBB
:1010A000142200210DA829F0ABFE9D4B10219D4874
:1010B0001A6B01274FF010084FF0030B42F010029B
:1010C0004FF4805A984D4FF004091A631A6B974EEB
:1010D00002F010020292029A1A6B42F002021A63A4
:1010E0001A6B02F002020392039A1A6B42F0010299
:1010F0001A631A6B02F001020492049A1A6B42F00E
:1011000040021A631A6B02F040020592059A1A6BAC
:1011100042F400721A631A6B02F400720692069A85
:101120001A6B42F008021A631A6B02F00802079267
:10113000079A1A6B42F480621A631A6B02F4806297
:101140000892089A1A6B42F020021A631A6B02F096
:1011500020020992099A1A6B42F480721A631A6B80
:1011600002F480720A920A9A1A6B42F080021A63A1
:101170001A6B02F080020B920B9A1A6B42F0040277
:101180001A6300221B6B03F004030C930C9B04F006
:10119000A3F801220821664804F09EF801224FF4CA
:1011A0008051644804F098F80022C021624804F09D
:1011B00093F800224021614804F08EF80DA95948A7
:1011C000CDE90D87CDE90F4B03F0FEFE08230DA9F5
:1011D0005748CDE90D37CDE90F4403F0F5FE0DA9D1
:1011E0005448CDE90DA7CDE90F4403F0EDFEC02230
:1011F0000DA95148CDE90D27CDE90F4B03F0E4FED1
:1012000040220DA94D48CDE90D27CDE90F4B03F044
:10121000DBFE4B484B49848001600762C0E905440E
:1012200003F034FD48492846C5E90A44C5E90C44A1
:10123000C5E90014C5E9024403F0C5FD3946284656
:10124000424D03F079FE42494FF4C0723046B4601B
:10125000F461B462C6E900144021C6E905124FF4F6
:1012600000620DA9C6E9082A4FF0020A0722C6E962
:101270000398CDE90DA2CDE90F92CDE911BACDF8D1
:101280004CA005F0F1FD29464FF6FF72304601945F
:10129000C5E90078C5E9027405F006FE384603F09A
:1012A00035FC29464FF6FF723046C5E90274C5E9A0
:1012B00000A805F0F9FD082329464FF6FF723046D5
:1012C000C5E900B8C5E9023405F0EEFD4FF40C7332
:1012D0004FF6FF72294601933046019B40F2352BB1
:1012E000AF60EB60C5E9009805F0DEFD40F22B71C0
:1012F0003046184D05F0F7FD43F2D2024FF020437F
:10130000642028261A6003F001FC134B13482C625A
:10131000C5E90003284623E01B00000300ED00E0C0
:101320000038024000040240800100205C030020DD
:10133000002802400020024000080240001802403D
:101340005C0100200030024000B00240400100205B
:10135000400100A01402002068474020005C0040CB
:10136000C5E90247C5E90444C5E9064404F0DCF8D0
:101370002146284604F0FAFA21462846634D04F037
:101380001BFB342221460DEB020029F039FD604B96
:101390004FF0350C40F2152E2846AC862C6185F8AE
:1013A0003640C5E900340923C5E905630B23594ECE
:1013B000C5E907C340F21B13C5E909E340F21D1359
:1013C000C5E90244C5E90BB304F09EFBFF214FF4CD
:1013D00080604FF4F0724FF488730D94ADF8644060
:1013E00018938DF86640CDE912140521CDE914015A
:1013F0004FF0404128461825CDE91612CDE90E24BC
:101400000DA92246CDE9103A04F049FC4248434B6D
:101410000462C0E900374FF4A063414FC0E90453B0
:10142000C0E90298C0E9064404F09EFD3D4D03F07A
:10143000C7F903F00BF95C2003F0CCFB00F0BAFB1A
:1014400000F0E4FB00F0E1FB374BEB60374B6B60E7
:10145000374B2B60FFF76CFD05F074FF354A2146D2
:10146000354805F0A9FF354B354A21461860354807
:1014700005F0A2FF344B354A21461860344805F088
:101480009BFF344B186005F077FF0DA9284602F04A
:10149000B7FF9DF834309A071FD500231D492E4C05
:1014A0002846338002F06EFFB6F900103846FFF789
:1014B000C8FC10EE100A84ED000AFFF75DF8024642
:1014C0000B46264829F092FB94ED007AB5EEC07ADF
:1014D000F1EE10FA0FD5002323609DF83430DB07BE
:1014E00005D51F49002328460B8002F05BFF6420CE
:1014F00003F00CFBC9E7DFED1B7AB4EEE77AF1EEFF
:1015000010FAC8BFC4ED007AE7E700BF6802002008
:10151000006801405401002010030020001000A0CA
:10152000A403002090030020C0010020170E000833
:10153000F50D000848BD0208390E000858010020CA
:1015400024BD02081B1C0008500100206CBD0208CD
:101550009D340008C4030020A0030020F0BC020852
:10156000560100200000C8420268034B9A4201D194
:1015700003F0BABA704700BF001000407047000087
:101580000D4B82B00F216FF001001A6C42F08052B7
:101590001A641A6C02F080520092009A5A6C42F45B
:1015A00080425A6400225B6C03F480430193019BE8
:1015B00002B003F0CFBA00BF00380240026882B028
:1015C000084B9A420BD1D3F8302803F5006342F45C
:1015D00080521A631B6B03F480530193019B02B08A
:1015E000704700BF003002400E4B07B502689A42B8
:1015F00015D1A3F5F04305215A201A6B42F40002DD
:101600001A6300221B6B03F400030193019B03F098
:10161000A1FA5A2003B05DF804EB03F0CDBA03B091
:101620005DF804FB00B0024010B5A8B004461422D7
:10163000002102A829F0E4FB8422002107A829F058
:10164000DFFB2268174B9A422AD14FF4803307A858
:10165000079305F07FF908B1FFF790FF124C4FF4A4
:10166000C07201211148236B43F080032363236B75
:1016700003F080030093009B1223CDE90223032390
:10168000CDE90413042302A9069303F09DFC236C07
:1016900043F400032364236C03F400030193019BD0
:1016A00028B010BD005C004000380240001C024021
:1016B000026808B5094B9A420FD1094A80210948AE
:1016C000136C23F40003136403F060FD4FF4807186
:1016D0000448BDE8084003F059BD08BD005C004067
:1016E00000380240001C024070B5ACB00446142221
:1016F000002106A829F084FB842200210BA829F0F0
:101700007FFB2268484B9A4240F08C8008230520DA
:1017100001240B934FF4C07310930223CDE91130D1
:101720004FF400330BA8CDE9154305F013F908B1C8
:10173000FFF724FF3D4B002402250E265A6C06A914
:101740003B4842F080625A645A6C02F08062009218
:10175000009A1A6B42F010021A631A6B02F0100220
:101760000192019A1A6B42F400721A631A6B02F426
:1017700000720292029A1A6B42F480621A631A6B28
:1017800002F480620392039A1A6B42F040021A63D9
:101790001A6B02F040020492049A1A6B42F48072AF
:1017A0001A631B6B03F480730593059B1023CDE92B
:1017B0000635CDE908440A9603F006FC4EF6FF73A1
:1017C00006A91C480A96CDE90635CDE9084403F080
:1017D000FBFBF72306A918480A96CDE90635CDE9A3
:1017E000084403F0F1FB4FF4805306A91348CDE9F8
:1017F00006350923CDE908440A9303F0E5FB4FF4CD
:10180000464306A90E480A96CDE90635CDE90844B7
:1018100003F0DAFB58202246052103F09BF95820FB
:1018200003F0CAF92CB070BD0068014000380240D6
:10183000001002400024024000280240001802402C
:1018400000200240142200212DE9F0418AB0044614
:101850000DEB020029F0D4FA22682C4B9A4251D1A8
:101860002B4B0225032409269A6B4FF0040805A987
:10187000284842F0020200279A639A6B02F00202A3
:101880000192019A1A6B42F010021A631A6B02F06D
:1018900010020292029A1A6B42F002021A631A6B49
:1018A00002F002020392039A1A6B42F008021A63D2
:1018B0001B6B03F008030493049BCDE90585CDE978
:1018C000084603F081FB402305A91348CDE90535FF
:1018D0000A23CDE90774099303F076FB05A90E48A6
:1018E0000996CDE90585CDE9077403F06DFB4FF44A
:1018F000605305A909480996CDE90535CDE9077476
:1019000003F062FB0AB0BDE8F08100BF001000A048
:10191000003802400010024000040240000C024067
:10192000026808B50B4B9A4213D10B4A04210B48AD
:10193000936B23F00203936303F028FC44210848CF
:1019400003F024FC4FF460510648BDE8084003F062
:101950001DBC08BD001000A000380240001002406D
:1019600000040240000C0240F0B5002387B003934E
:10197000294B1E68002E4DD10122022703250C247D
:101980001A6001A9254B26489A6B42F001029A631E
:101990009B6B03F001030093009B4FF68373CDE92B
:1019A0000454CDE9013703F00FFB48F2331301A9CA
:1019B0001C480594CDE90137CDE9036503F004FB2C
:1019C0004CF2037301A918480594CDE90137CDE91C
:1019D000036503F0F9FA4FF63F0301A91348059494
:1019E000CDE90137CDE9036503F0EEFA282301A91B
:1019F0000F480594CDE90137CDE9036503F0E4FA1A
:101A0000082301A90B480594CDE90137CDE9036509
:101A100003F0DAFA07B0F0BDCC0300200038024032
:101A20000010024000180240000C02400014024066
:101A3000001C024000080240214B1A6C42F01002C8
:101A400070B51A6488B01B6C054601A903A803F0A1
:101A500010030293029B04F05FFF069B4BBB04F054
:101A60004BFF184E184B336040F2E733F360174BCF
:101A7000B0FBF3F3013B3046736000233361B36086
:101A8000B36105F0A1FB044680B9304605F044FA85
:101A9000044658B9362003F08FF80F2D0DD8224692
:101AA0002946362003F056F8094B1D60204608B041
:101AB00070BD04F021FF4000D3E70124F6E700BF2A
:101AC00000380240D00300200010004040420F00C8
:101AD0003C0000207047FEE7FEE7FEE7FEE77047A8
:101AE000014805F05BBA00BFD0030020014804F0B4
:101AF00079B800BF68020020014803F092B900BF26
:101B0000800100200120704708B529F02DFA162326
:101B100003604FF0FF3008BD08B529F025FA162301
:101B20000360FEE770B50D4614460E46731B9C42DB
:101B300001DC204670BDAFF3008006F8010BF5E72D
:101B400070B50D4614460E46731B9C4201DC2046C0
:101B500070BD16F8010BFFF7D9F9F5E74FF0FF302C
:101B600070474FF4005300204B60704701207047CE
:101B7000002070470B4A0346116810B509B90A499D
:101B80001160106809490A4C0344091B8B4206D9AD
:101B900029F0EAF90C2303604FF0FF3010BD136009
:101BA000FCE700BF1C040020E85D012000000520C8
:101BB000000A000070470000DFF834D0002103E085
:101BC0000C4B5B58435004310B480C4B42189A4263
:101BD000F6D30B4A02E0002342F8043B094B9A4239
:101BE000F9D302F085FE29F0C5F9FFF7F9F970473E
:101BF00000000520C8060308000000202401002082
:101C000024010020E45D0120FEE7704708B501F0E3
:101C1000F7F8BDE8084001F083B801F0F3B8406878
:101C200070474160704700004FF0E022D2F8FC3D61
:101C300043F08073C2F8FC3D054B064AD3F8B01F51
:101C40000A43C3F8B02F1A6842F001021A607047C5
:101C5000001000E055CEACC5511A01EB5301B1FBA9
:101C6000F3F07047014B5868704700BF001000E068
:101C7000704710B504460C2128F0C8FD204610BD61
:101C8000036810B51B69044631B19847A2686368C0
:101C90009B1A1844606010BD9847A060FBE70000E5
:101CA000024B7020024A1360DB68184710000020C6
:101CB00020040020704710B50446042128F0A6FD3A
:101CC000204610BD73B50E4E0D461446336813B949
:101CD000002002B070BD1B69702098470028F7D023
:101CE0003368702001AA0DF106015B699847BDF8C1
:101CF000043001202B60BDF806302360E9E700BF07
:101D0000200400207FB501238DF817204FF47A724C
:101D1000CDE901320DF1170200920A46014605484D
:101D200003F06CFC10B1034803F04FFC07B05DF802
:101D300004FB00BF140200207FB500230A464FF4C5
:101D40007A718DF817300123CDE901310DF11701BA
:101D500000910146054803F02BFD10B1034803F044
:101D600034FC9DF8170007B05DF804FB1402002056
:101D7000032823D8DFE800F0020B131A104B1021C0
:101D800010481A68B2FA82F2520903F0A5BA0C4B55
:101D900040215A68B2FA82F252090B48F5E7084B23
:101DA00080219A68B2FA82F25209F6E7044B402188
:101DB0000648DA68B2FA82F25209E6E7704700BFD5
:101DC00024040020000402400008024000180240E1
:101DD000032823D8DFE800F0020B131A104B102160
:101DE00010481A68003A18BF012203F075BA0C4B6C
:101DF00040215A68003A18BF01220B48F5E7084B0A
:101E000080219A68003A18BF0122F6E7044B40216E
:101E10000648DA68003A18BF0122E6E7704700BFBB
:101E20002404002000040240000802400018024080
:101E300003280FD8DFE800F00206090B102106483E
:101E400003F04FBA40210548FAE78021FBE7402123
:101E50000348F5E7704700BF000402400008024055
:101E60000018024008B5032813D8DFE800F0020A82
:101E70000D0F1021084803F029FA431E584258411B
:101E800008BD40210548F6E78021FBE740210448D2
:101E9000F1E70020F1E700BF000402400008024023
:101EA0000018024070B5084D00240126E0B2FFF78B
:101EB000D9FF18B12B68012B18BF2E6001340435EF
:101EC000052CF3D170BD00BF24040020012380F84D
:101ED000781080F8793070470020704741640039ED
:101EE000024B18BF01211970704700BFB351012088
:101EF00000207047836B0BB10846184770474FF6B8
:101F0000FF707047406803689B691847704700007E
:101F100038B5044601F080F8084923682046084D8A
:101F2000D3F88C3098470023284684F84A30FFF7CE
:101F30007BFE0123256184F8703038BD000000C0AD
:101F40003404002001F01EB801F022B870B501F091
:101F50008DF810490023C1F88430BFF34F8FD1F8BA
:101F6000803043F6E074C3F3C900C3F34E335B0122
:101F700003EA0406024646EA8275013AC1F8745241
:101F8000F9D2203B13F1200FF2D1BFF34F8FBFF3F3
:101F90006F8F70BD00ED00E001F06AB800F0CEBFB9
:101FA00001F084B901F08CB900F0D2BF10B504463D
:101FB00015F024FE23682046D3F8AC30BDE810406D
:101FC000184715F079B810B504467C2128F01EFC9E
:101FD000204610BD90F87A301BB1406803681B683A
:101FE000184718467047000090F834100D4B10B594
:101FF00090F878401A788C4209D03AB90A490B4ACD
:1020000008881488108001220C801A7010BD002AE4
:10201000FCD0064A0449148808880C8010800022ED
:10202000F3E700BFAC510120AA510120A8510120C3
:1020300070B50D46194635B9094B40F2D221094A0F
:10204000094828F011FCC0E90F52003A074B18BFAD
:1020500001221A700368BDE87040D3F88C3018472D
:10206000D0BD020808BE020856BE0208B2510120C7
:1020700008B5094B1B888B4203D8084B1B88934239
:1020800005D9074B9E21074A074828F0EDFB074B6F
:102090001980074B1A8008BDA8510120AA510120C0
:1020A0009BBE0208FEBE020856BE0208AE510120C9
:1020B000B0510120014608B5034B186801B1012158
:1020C00015F0B6FD012008BDB4510120034B0022DC
:1020D0005A609A60024A1A60704700BF34040020B8
:1020E00098BD02080121002208B5084605F070FAE3
:1020F0000A4B186028B90A4B28210A4A0A4828F0D6
:10210000B3FB00220421012005F028FB074B1860D7
:1021100018B9074B2C21034AF0E708BD44040020FE
:102120001CC0020865C0020894C0020840040020D8
:10213000E1C00208024B4FF0FF31186805F09EBA6B
:1021400044040020014B186805F0D2BA4404002072
:10215000024B0021186805F091BA00BF440400202A
:10216000FFF7F0BF0023034803491A46006805F053
:102170003BBB00BF400400200400002013B5002337
:10218000074C01A91A46206805F070FB4FF0FF3399
:10219000002201A9206805F069FB02B010BD00BF54
:1021A0004004002003685B6C1847012070470368F7
:1021B0009B6A18470D4B82B01A6B42F400021A63F7
:1021C0001A6B02F400020192019A1A6942F40002A9
:1021D0001A611A6922F400021A61054B054A1A6154
:1021E0004FF08062044B9A6002B0704700380240A2
:1021F000800100203D22000800E100E040F2EF30C5
:1022000070470000054B4FF080620360044BC3F839
:102210008820BFF34F8FBFF36F8F704780C20208D3
:1022200000E100E010B504464FF45A61FFF7EAFF01
:10223000204628F0EBFA204610BD0000024B1B6838
:10224000586803685B691847B451012070B50446AB
:102250000A4B0C30002625466022606026726672AA
:1022600045F8203B294615F01FFE04F55A63EE6041
:102270002435AB42FBD1204670BD00BF80C20208AE
:1022800008B50B290BD8DFE801F01206100A0A0A7C
:102290000A0808080808012008BD0520FCE7054BCE
:1022A0006521054A054828F0DFFA0020F4E70220FE
:1022B000F2E700BF23C102083EC1020888C102083C
:1022C00008B50A2909D8DFE801F010060E08080849
:1022D000080606060600012008BD054B8621054AB2
:1022E000054828F0C1FA0020F6E70220F4E700BF15
:1022F00023C10208D3C1020888C102082DE9F843AE
:1023000091F81D800C4607464146FFF7B9FF94F847
:102310001E90054638464946FFF7B2FF4946064635
:102320003846FFF7CDFFA18A628B434B521A1A64DD
:102330009A61228B521A1A61E28A586342EA014278
:1023400020695A646268D863DA602768802F28D0D1
:10235000227F0FD8202F65D0402F63D0042F1AD0B2
:1023600045EA0265344BC84545F40035DD615FD070
:10237000324A44E0B7F5807F04D0B7F5007FEFD153
:102380002F4900E02F4941EA0262DA61E2681A62ED
:102390005E62586132E045EA026242F40032DA617C
:1023A000F6E7A7683A1DDA62217F3A7845EA0165C7
:1023B00045F40035DD615E62586142B1012A21D0E9
:1023C000214B4FF48871214A214828F04DFADA69EF
:1023D000798822F47F42013922F0100242EA012278
:1023E0000121DA61144BDA6942F02002DA61DA691C
:1023F0009206FCD410229A600029B9D0154A1A60BE
:10240000BDE8F883DA69FF39788822F47F4218BF83
:102410000121013822F0100242EA002242F01002AB
:10242000DA61DFE745EA0262034B42F40032B6E7C5
:1024300040F20122E3E700BF00B0024001020100C8
:10244000090002000A0002001EC2020838C2020887
:1024500088C102080102020038B50C46897FFFF7E7
:102460002FFF174BA58AE28A586342EA0542216989
:102470005A64628BD963521B1A642568082D0ED1E9
:102480009A611A6158620F4A207F42EA0062DA615B
:10249000E2681A620C4A5961D9601A6038BD00229C
:1024A000D8611A61E1680A0A4809C1F3C40102F45B
:1024B000784200F4FC6002430A439A63034AECE763
:1024C00000B0024009000100010202000102030005
:1024D0004069704790F844007047036B23B9C06AA5
:1024E000003818BF0120704701207047806870478E
:1024F000043010B50C460FC884E80F0010BD7047BB
:1025000008B5034A40F21221024B034828F0ACF907
:10251000C8C20208AFDC020823C3020810B5044693
:10252000482128F073F9204610BD00002DE9F04342
:102530001C46436BADF51F7D05460E461746002B26
:1025400037D0002203A8DFF8A890CDE901320DF0C2
:10255000EBFA4FF4F4725021249024A807F033FAD8
:102560003A46314624A808F0AFF9012124A807F023
:102570002DFB022324A88DF8D83007F0CBFBBDF843
:1025800098322B9ABDF89C629342A89F28BF1346AD
:10259000419A964203EB4308A7EB430728BF164630
:1025A000479B9E4209D824A807F032FB24A807F0D5
:1025B00057FA0DF51F7DBDE8F083012201A924A87B
:1025C00007F0F1FB6B6B03EB0800984201D83C4429
:1025D000E6E759789A78C90009EA022201F4FC6119
:1025E0000A4313F8031B42EAD10224F8022BECE75A
:1025F00000F8FFFF0A4A02600022C0E90522C0E994
:102600000722C0E90922C0E90B22C0E90D12C0E986
:102610000F2280F84420C0E90322C0E9012270475C
:1026200004C6020810B40C4611461A46036B3BB1AF
:10263000036C806BE41A20445DF8044B28F0E8BB7F
:10264000C06AF8E7036B10B573B1036C826BC91AEB
:102650005318525C98785C780004DB7840EA0420D8
:10266000104340EA036010BDC36A5858FBE7036B90
:1026700043B1036CC91A836B5A18585C527840EA0C
:1026800002207047C36A585A7047000070B504466C
:10269000006B0D461646D8B1E36B934208D209236E
:1026A0000D4A65210D4884F844300D4B28F0DCF8C4
:1026B0000368DB689847206B3246A16B03681B698F
:1026C000984710B90D2384F84430A06B256470BD81
:1026D000E06A0844FBE700BF8DC3020823C3020879
:1026E0007AC302082DE9F843436904462BB9234B0A
:1026F000AA21234A234828F0B7F808228169FFF766
:10270000C5FFA16943F2300646F264370431204622
:10271000FFF798FFA3691844A36A00F108029A42E0
:1027200006D3012300206361236AA361BDE8F88317
:10273000636909300822013320F0010120466361FA
:10274000A161FFF7A3FFD4F8189020464946FFF790
:102750008EFF09F1020180462046FFF788FF09F14C
:10276000040105462046FFF76DFFB045D2D1BD42BA
:10277000D0D10028CED00120D8E700BFCFC30208B7
:1027800018C4020823C302082DE9F04F0446ADF532
:102790001F7D8A461646816908229846FFF776FF14
:1027A000A7692046391DFFF74DFF07F108010246D2
:1027B00005462046FFF76AFF636B074633B93C4B7B
:1027C00040F2AB113B4A3C4828F04EF8002203A8E7
:1027D000CDE901320DF0A8F94FF4F47250212490A4
:1027E00024A807F0F0F82A46394624A808F06CF827
:1027F000012124A807F0EAF9022324A88DF8D83093
:1028000007F088FABAF90250479BAB4229D3BAF9CC
:1028100000904FEA4808BAF804702B9B08FB056645
:102820004F44BAF80250DFF894B03FB29F4228BF3D
:102830001F46BAF8063009EB490A1D44419B2DB2E8
:102840009D4228BF1D46479BAB4210D324A807F0EA
:10285000DFF924A807F004F901200DF51F7DBDE87C
:10286000F08F012201A924A807F09DFACCE70122EC
:1028700001A924A807F097FA626B49465244B9426D
:1028800002F1030201D34644DDE712F8020C12F80C
:10289000013CC0000BEA032300F4FC60034312F880
:1028A000030C43EAD00326F811300131E7E700BFFB
:1028B0004BC40208A1C4020823C3020800F8FFFFAA
:1028C0000129036838BF0121DB6A70B50D46044653
:1028D0009847A84204D223682046DB6A98470546F9
:1028E0006B1EE6691022204606EB031606F108016E
:1028F000FFF7CCFE06F110012046FFF7A3FE236A86
:10290000043B0344C4E9055370BD00002DE9F341C5
:10291000002104464822816180F84410FFF7B6FE8A
:10292000A7690423634A39462046FFF77BFE40B17E
:102930000323614AF22184F84430604B604827F059
:1029400093FF07F1080104235E4A2046A161FFF7C7
:1029500069FE30B10423584AFA2184F844305A4BB6
:10296000ECE707F10C010423584A2046A161FFF768
:1029700059FE064638B105234F4A40F2011184F84A
:102980004430534BDAE707F110012046FFF75AFEB7
:10299000054620B94F4B40F20711474ACEE707F1F1
:1029A000140804234C4A20464146FFF73BFE00280A
:1029B0004BD0062384F844300423484A07F1180119
:1029C0002046FFF72FFE002841D0072384F844302B
:1029D0004544434F0C2220462946FFF757FE05F198
:1029E000080604233A4620463146FFF71BFE94F8BA
:1029F000443000284AD0002B4AD1A36A291DAB429B
:102A00004AD805F10C03291D2046A3610191FFF767
:102A100019FE3044019960622046FFF713FE064418
:102A2000042220463146FFF731FE04232D4A314669
:102A30002046FFF7F7FD002839D10123E6616361E5
:102A4000A369236202B0BDE8F0810126B4E7002E3D
:102A5000BED007F120012046FFF7F4FD4FF47A7352
:102A600007F13001B0FBF3F060602046FFF7EAFDAC
:102A700007F14001A0602046FFF7E4FD07F14401A3
:102A8000E0602046FFF7DEFD2061A1E7002BB8D013
:102A90000A2384F84430D5E72046FFF7D3FD0830F9
:102AA0000C22054420462946FFF7F0FD97E70B234B
:102AB000EFE700BFFBC4020819C5020800C5020801
:102AC00023C3020846C502084BC5020863C50208B5
:102AD00068C502087EC502088AC502088FC50208BB
:102AE00094C5020899C50208C0E90A2100220263C0
:102AF000FFF70CBF10B5002304460846E3620B68DD
:102B000021639B689847A0622046BDE81040FFF70C
:102B1000FDBEF0B4BDF81050BDF814602AB123B169
:102B2000CDE90456F0BCFFF701BDF0BC70470000D2
:102B30002DE9F04F9946436985B004460F4690460B
:102B40002BB92A4B77212A4A2A4827F08DFE0822E2
:102B50008169FFF79BFDA66920463146FFF787FD97
:102B6000B11C83462046FFF782FD311D8246204678
:102B7000FFF768FD06F10801A36A054642189A426C
:102B800027D243F230039B4517D146F264339A456E
:102B900013D190B10246A1612046FFF777FD0E9B4D
:102BA00001462A462046CDF80080CDE901933B46F8
:102BB000FFF7AFFF636901336361A3692B448DB1F4
:102BC000A361A369626A013323F001039342A36105
:102BD0000AD10120236A6061A36180F0010005B081
:102BE000BDE8F08F0833EBE70020F6E7CFC302081B
:102BF0009EC5020823C30208012070470C207047BD
:102C00000C2303FB0100083070470C2303FB010079
:102C100008307047012070474FF4D07070474FF470
:102C2000D07303FB0100083070474FF4D07303FBEF
:102C3000010008307047012070471020704700EBFA
:102C400001100830704700EB01100830704708464B
:102C500000F03CBE034B10B50446036013F082FF46
:102C6000204610BDACC6020810B50446FFF7F2FFBF
:102C70001421204627F0CAFD204610BD034B10B595
:102C80000446036013F06EFF204610BD78C60208AC
:102C900010B50446FFF7F2FF4FF4D471204627F039
:102CA000B5FD204610BD0000034B10B5044603607F
:102CB00013F058FF204610BD44C6020810B5044664
:102CC000FFF7F2FF1821204627F0A0FD204610BD97
:102CD000084B10B50446036000F5EA70FFF7BAFF31
:102CE00004F12C00FFF7CAFF04F11400FFF7DCFF2A
:102CF000204610BDE0C6020808B50248FFF7E8FF0D
:102D000008BD00BF4C04002010B50446FFF7E0FFEB
:102D10004FF45271204627F079FD204610BD000087
:102D20002DE9F34100F052FC0024054600F052FC6E
:102D3000234601462246284600941AF0E5F8254B22
:102D4000254A2046254D1A6001F0C6F924481AF09C
:102D500043F82B68BFF35B8FDB0735D4284627F099
:102D600057FD88B31F4C204B04F5F67604F1140090
:102D700004F12C0804F5EA7723606060C4F8088049
:102D8000E760266113F0F0FE184B4046636113F0D4
:102D9000EBFE174B3846E36213F0E6FE154B04F5E5
:102DA000F470C4F8D43101F07FFA224604F5F471CE
:102DB000304601F003FA304600F088FD0E4827F057
:102DC00071FD284627F030FD0C4802B0BDE8F04107
:102DD000FFF79EB810520120B415002048040020CF
:102DE000080000204C040020E0C6020844C6020887
:102DF00078C60208ACC60208F92C00083815002075
:102E000070470000014814F0C0B900BF3815002019
:102E100070B5224E224B234C3046234D2360FFF7E2
:102E200015FA28461EF04AFB204B00224FF4807111
:102E30001F481A8683F858205A6683F870205A670C
:102E4000DC60C3E912121B49C3E91A121A499967D7
:102E50001A490B604FF4F0710180194801804FF45A
:102E600088711848C3E90422C3E90622C3E908228D
:102E7000C3E90A22C3E90E22C3E91022C3E91422DE
:102E8000C3E91722C3E9016501800F4883F83420A4
:102E900001800E490A700E4A1A6070BD9807002022
:102EA000C0BD020894070020B81500203815002086
:102EB000A85101200100000100000101B4510120CE
:102EC000AE510120AA510120B0510120AC51012086
:102ED0004CBF02080148FFF795B900BF98070020D2
:102EE0000020704781807047C18070470181704722
:102EF000418170477047704770477047704710B402
:102F0000C4880368121B84885B6D091B12B25DF8CC
:102F1000044B09B218474FF6FF7383814FF0FF331C
:102F200003621368C3611060704790F825201AB1DE
:102F300090F8242002B1186070470000034B9022E3
:102F400083F85A2383F85823704700BF00E100E05C
:102F5000094A0A49D3680A48C3F30A03013B9BB2F2
:102F60000B801169C1F30A01013901801364536BAD
:102F700043F0010353637047006801409616002038
:102F800094160020014BD3F8AC0070470068014054
:102F9000024B0122C3F8AC105A627047006801402E
:102FA000124A5369DB0370B51ED50023C2F8843082
:102FB000BFF34F8FD2F8803043F6E074C3F3C900FB
:102FC000C3F34E335B0103EA0406014646EA81750A
:102FD0000139C2F87452F9D2203B13F1200FF2D11B
:102FE000BFF34F8FBFF36F8F70BD00BF00ED00E0E8
:102FF00070473823002201FB0333C25490F8383065
:103000000BB9036C83647047704710B504465821B0
:1030100027F0FCFB204610BD38B5044614F0A1F89B
:1030200023685D6E16F03EFF01462046A8472368E0
:10303000084A2046D3F888500023A2F57F31A847DC
:10304000054B064A5A60064A1A649A644FF4FF22F6
:103050005A6438BD00F807C03C160020181E002036
:1030600000F40BC014F064B814F06EB814F02AB871
:1030700014F099B990F8252012B103685B691847DC
:103080007047000008B531B1044B40F29711044A73
:10309000044827F0E9FB90F8390008BDECC60208A7
:1030A00000C702088DC8020810B531B1064B40F2C6
:1030B0009111064A064827F0D7FB4068114603687D
:1030C000BDE810401B6B1847ECC60208CFC80208C9
:1030D0008DC8020808B529B1034B7A21034A044878
:1030E00027F0C2FB006908BDECC6020880CA0208CE
:1030F0008DC8020808B529B1054B8321054A064849
:1031000027F0B2FB41618160C0E9063208BD00BF13
:10311000ECC6020838CC02088DC8020810B5044677
:1031200029B1274BA421274A274827F09DFB052AD0
:1031300034D8DFE802F003292F34393E40680368B1
:103140001B69984750B34FF0FF31606D04F0E6F90A
:103150000023012294F83E1084F83B3084F8392093
:10316000A360636101B1226284F83E306362E36A66
:103170002BB90123206D84F83A3004F0B9FA606D60
:10318000BDE8104004F0FAB9002380F8393084F823
:103190003E3003E0036200238360436110BD03629D
:1031A000002383604361F2E7002380F83930012374
:1031B000EDE7003B18BF012380F83D30EEE700BF8C
:1031C000ECC60208F7CD02088DC8020870B50446A7
:1031D000164629B1314BE721314A324827F044FBEA
:1031E00090F8393033B1304B1B6893F86B2043694A
:1031F00013444361E36A002B4DD0E169D4E9053201
:103200005343A2684A43934220D2236A002B42D000
:103210004FF0FF31606D04F081F9236A0BB1002398
:10322000E362E36AFBB90125606D04F0A7F994F845
:1032300039300BB9236A3BB1E36A2BB90123206D06
:1032400084F83A3004F054FA284670BD94F84C00E3
:103250000028DDD09B1AB3FBF1F2994298BF02F12E
:10326000FF326262D4E7002294F83C50A3623046F9
:10327000E262E2682261A2680132A26033633368CD
:103280005B699847002DCED194F83D30002BCBD10F
:1032900084F83950C8E70125C9E700BFECC6020829
:1032A000CECF02088DC80208B4510120034B4FF065
:1032B00080629A604FF080729A60704700E100E08F
:1032C000084B4FF08062C3F88820BFF34F8FBFF3E5
:1032D0006F8F4FF08072C3F88820BFF34F8FBFF31A
:1032E0006F8F704700E100E038B5034690F8380072
:1032F00038BB01229860D8609A634FF4807258619D
:103300009A874FF4F0729861D86118625862986297
:10331000D8621863586383F83E00CA864FF48872F7
:1033200081F834000A8708639A6C186102F5FF245B
:10333000D3E9101529448C420AD9084B5821084A70
:1033400003E0084B40F2F511074A084827F08CFAD1
:103350001A6302F57F329C645A6338BD2CD302088D
:103360006CD3020872D10208A2D102088DC80208EB
:1033700010B5144C236823B3134B144A1B6C1188EB
:103380008B4213D1124B198802F0B6FC226892F8D6
:103390006A30013382F86A30FEF7E4FE206814F0E8
:1033A0002DFC0020BDE81040FEF7E2BC02F0A4FCBA
:1033B000206803681B6A98470020BDE81040FEF7AC
:1033C00007BD10BDB45101200068014096160020D1
:1033D000941600202DE9F74304464FF4707894F8D2
:1033E0003A304FF0FF31002B31D0606D04F096F889
:1033F000276BA36ABB4200D1676B266A656856B328
:103400002B68314628465B6A98470023236284F87C
:103410003B30606D04F0B2F82B684FF4F07239461F
:10342000CDF8008028465E694FF48873B0474FF0AE
:10343000FF310646606D04F071F894F83B30E3B15B
:10344000002384F83B30606D04F098F8C7E7206DE6
:1034500004F014F9C3E7636A002BDAD02B6828461E
:10346000D3E909939847616A01442846C847A3688D
:10347000626A66621344A360CBE7E7625EB12B68C1
:1034800028469B6A984701380023E06084F83C6036
:1034900084F83A30D7E70120F6E70000014808B584
:1034A000FFF798FF3C1600200368042270B504461D
:1034B0005E6A00230D46B0474FF0FF31606D04F0A7
:1034C0002DF8382303FB0542D16A09B10021D162EE
:1034D00003FB0545012385F83B30002385F839308F
:1034E000606DBDE8704004F049B838B500EB810369
:1034F00004460D46114658680368DB68984729461C
:103500002046FFF7D1FF38BD70B50D461146044681
:1035100000EB85025068026896681A46B047294653
:103520002046FFF7C1FF70BD38B516490025164883
:10353000FFF760F8154C164B01202A4629462360F8
:103540004FF48073A564A38784F84C0084F83E5040
:10355000C4E91055C4E91455C4E90155C4E903553B
:10356000C4E90555C4E90755C4E90955C4E90B5533
:10357000C4E90D5504F02CF82065284603F08AFFB5
:10358000606538BD98160020181E00203C160020EB
:103590001CD50208704710B50446042127F036F9FF
:1035A000204610BD012908B506D0022908D059B916
:1035B00000F0DEFD006808BD00F0DAFD4068FAE7C3
:1035C00000F0D6FD8068F6E70020F4E70048704779
:1035D00064D502080820704713B5002451B1036870
:1035E00001AA01948DF803409C680DF10303A047E4
:1035F00002B010BD0846FBE7C0897047008A7047DB
:10360000C088704780887047807A00F07F007047DC
:10361000807AC0097047704710B50446082127F02A
:10362000F5F8204610BD7047704700F5987308689C
:10363000496803C3704770477047416070477047DF
:10364000064BC0F84801C0F84C310023C0F8503197
:1036500000F5A273C0F84031704700BF053700087D
:103660000123037270477047704710B441680346E6
:10367000C2689B68541001EB6200D20748BF0A5928
:103680005DF8044B48BFD358184743682BB1836893
:103690002BB9C06800F00100704718467047012040
:1036A000704710B504460C2127F0B0F8204610BD35
:1036B00010B50446102127F0A9F8204610BD10B51A
:1036C00004464FF4AE7127F0A1F8204610BD10B5A6
:1036D00016F0E8FB0368BDE81040DB6B184710B537
:1036E0000446D0F8400158B10368DB68984738B108
:1036F000D4F8400103689B6898470023C4F8403120
:1037000010BD00002DE9F14FD0E9555A0746A868D1
:1037100003681B6A9847B0F5D07F05D2454BA321BB
:10372000454A464827F0A0F8686803681B6A98472E
:103730000F2803D8424BA4213F4AF2E7E868036808
:103740001B6A98470B2803D83E4BA5213A4AE8E765
:10375000DFF8F89016F0A6FB043016F0C8FBD9F895
:10376000000010B10368DB689847D9F8000010B179
:1037700003681B689847DFF8D880D8F8000010B1BC
:1037800003685B699847D7F83C0110B103685B6830
:103790009847D8F8000010B103681B689847D7F81D
:1037A0003C0110B103689B689847E86800214FF01E
:1037B000000B03685B6A9847234B0446C0F804B0CB
:1037C0000360594680F808B0A86803685B6A9847A8
:1037D000064600F031FD6868594603685B6A984701
:1037E0000546314600F002FDC9F80040C7F83C51DB
:1037F000C8F80060E5B12B1DCAF8003030463368C8
:10380000C5F808A0DB68F56398472B6828461B6855
:1038100098472146304618F011F8236820461B6966
:103820009847236820465B6901B0BDE8F04F184710
:103830002B46E1E714D60208A2D60208A0D7020858
:10384000E7D702088AD80208A4D90208F451012057
:10385000F0510120044B1B6893F858200AB1D86C32
:1038600000B99868704700BFB4510120F8B504460C
:1038700017460E4616F0DCFB104B00251C6029464F
:103880000F4B23600F4BC4E951350F4B1868C4E947
:1038900053550368C4E94F559B68C4E9557698476A
:1038A000284600F019FCFFF7D5FF1FF036FCFFF7A4
:1038B000D1FF1FF0ADFC2046F8BD00BF0052012033
:1038C00050D9020838D90208B4510120064BC0F87B
:1038D0004801C0F84C310023C0F8503100F5A27304
:1038E000C0F84031704700BF05370008406A704794
:1038F000806A704770478B88C069DB0A0A6850F895
:1039000023001044704710B5C2B1137BB3B1547B90
:10391000D27A240204F4E0641443026A98B202EBFF
:10392000840213888B4202D192F9020010BD05D89F
:103930000138043280B20028F3D1F7E70020F5E720
:1039400010B504462C2126F061FF204610BD000072
:1039500030B58BB00446BDF860500895BDF85C509A
:1039600007959DF8505006959DF84C5005959DF88B
:10397000485004959DF8445003959DF84050029599
:103980009DF83C500195BDF83850009517F0B0FBFC
:10399000064B20462360159BE361169B2362199B0F
:1039A00063621A9BA3620BB030BD00BFC8D9020886
:1039B0007047704770477047704730B585B00368EF
:1039C000044601816D460146D3F884303C342846D4
:1039D000984795E8070084E8070005B030BD30B58A
:1039E00085B00368044641816D460146D3F88430B2
:1039F0003C342846984795E8070084E8070005B05E
:103A000030BD0022028042808280C280704780F8F0
:103A100036107047036870B504461B6B154698470F
:103A20002368204629465B6EBDE870401847002099
:103A30007047806C70477047704770477047704799
:103A4000704730B444680346C2689B68551004EB65
:103A50006200D20748BF625930BC48BFD3581847EC
:103A600043682BB183682BB9C06800F00100704730
:103A7000184670470120704710B504464C2126F0C7
:103A8000C5FE204610BD10B50446102126F0BEFE2E
:103A9000204610BD10B504464FF4CE7126F0B6FE98
:103AA000204610BD08B5FFF7E5FA08BD00F1CC03CC
:103AB000994270B504460D4602D10368DB6A984707
:103AC00004F198039D4205D1236820461B6BBDE895
:103AD0007040184770BD0000036870B55E6B044607
:103AE000114B8DB21B682BB9104B6C21104A114839
:103AF00026F0BAFE1049828D0988914203D80F4BF7
:103B00006D210B4AF3E713F812200D4B1B6853F895
:103B1000220003681B6B9847281A334601B22046DF
:103B2000BDE87040184700BF0452012020DA0208A7
:103B300062DA02089DDA020808520120E4DA02087B
:103B40000C52012000224FF0FF318260C0E90021B9
:103B50007047036870B504461B6B15469847236889
:103B6000204629465B6BBDE87040184770B5044697
:103B70001D46BDF91060FFF7ECFF2368294620467B
:103B80009B6B9847236831462046DB6BBDE870404D
:103B9000184700000022C0E90122C0E90322C0E961
:103BA0000522C0E907224FF480728284014A026034
:103BB000704700BF64DB020838B504460D46262274
:103BC000002127F01DF92046FFF7E4FF064B2046B1
:103BD000294623602B88E384FF2384F8283014F0DF
:103BE00016FC204638BD00BFAC01030810B50446E2
:103BF0002622002127F004F92046FFF7CBFF0023FF
:103C00002046A36284F82C30012384F82430044B2E
:103C100023604FF6FF73E385238684F8323010BDAE
:103C2000380103082DE9F04F044600254FF6FF76D2
:103C3000A04604F16C0B04F1980A04F1CC0904F5D8
:103C400096772DED028B8BB017F04CFC7E4B262225
:103C50002946E56348F8403B404627F0D1F8404606
:103C6000FFF798FF794B08A958462364FF23A56600
:103C700084F86630ADF82060FFF79EFF5046FFF7EE
:103C8000B5FF4846FFF7B2FF04F5807308A9ADF809
:103C90002060184608EE103AFFF78EFF26222946CC
:103CA000384627F0ADF83846FFF774FF684B2A46D0
:103CB0004046C4F854314FF47F032946A4F85861B4
:103CC000C4F86031261D634BC4F85C51C4F82C3134
:103CD0004FF0FF33A4F86451C4F86851C4F874512C
:103CE000C4E95B355C4BC4E963345C4BC4E96535BE
:103CF0004FF4887300934FF4F073FFF737FF4FF0E2
:103D00007F4341463046A3664FF0010812F040FF62
:103D10002A4658462946FFF71CFF584608A9ADF821
:103D2000205014F074FB5946304604F5C67B12F05F
:103D30002FFF962228215046FFF70BFF032308AAE6
:103D400007A95046ADF81C30ADF8208014F026FAD3
:103D500051463046C4F8C0B012F01AFF48463C2223
:103D60002821FFF7F6FE062308AA4846ADF81C30C6
:103D7000042307A9ADF8203014F010FA4946304664
:103D8000C4F8F4B00DF1080912F002FF3B22FA2149
:103D900018EE100AFFF7DDFE072308A918EE100A37
:103DA000ADF8203014F033FB18EE101A304612F044
:103DB000EFFE5A229823FA2100923846FFF7D6FEEA
:103DC0004FF0FF3348463946C4F85C31D4F82C3103
:103DD000A4F86051D3F88430984704F5B47399E897
:103DE000070083E807001E4B04F5BC791B682BB95C
:103DF0001C4B60211C4A1D4826F036FD1C4B1B88BD
:103E00001BB91C4B6121184AF5E71B4B2946186862
:103E100000F09EF9194A03460A21484618F0CEFFE1
:103E20000B4B08A93846C4F874910893ADF8248068
:103E300014F056F93046394612F0AAFE20460BB06F
:103E4000BDEC028BBDE8F08F74DC0208D0000308E3
:103E50000CD60208CCDB02085CDC0208AD3A000894
:103E60000452012020DA020822DB02089DDA02084F
:103E700008520120E4DA020810520120C0F40208BE
:103E80007047000030B5164D8FB02C68BFF35B8FC4
:103E900014F0010420D1284626F0BAFCE0B13F23FB
:103EA000012210490993104B10480893104B0A94B3
:103EB0000594CDE906430423CDE903320A23CDE975
:103EC0000B440093CDE90144FFF742FD094826F079
:103ED000E9FC284626F0A8FC04480FB030BD00BF1E
:103EE000601E00208C92079084060308641E002048
:103EF00090060308813E00087047000030B5164D5B
:103F00008FB02C68BFF35B8F14F0010420D12846DA
:103F100026F07EFCE0B13F23012210490993104BAB
:103F200010480893104B0A940594CDE906430423E6
:103F3000CDE903322823CDE90B440093CDE90144B8
:103F4000FFF706FD094826F0ADFC284626F06CFC7C
:103F500004480FB030BD00BF901E00209C92079017
:103F600088060308941E002094060308F93E000802
:103F70007047000030B5174D8FB02C68BFF35B8FD2
:103F800014F0010422D1284626F042FCF0B13F2370
:103F9000012211490993114B11480893114B0A94BE
:103FA0000594CDE906430423CDE9033250230B22C7
:103FB00000935123CDE90B44CDE90144FFF7C8FC40
:103FC000094826F06FFC284626F02EFC04480FB066
:103FD00030BD00BFC01E0020AC9207908C060308C5
:103FE000C41E002098060308713F00080020704797
:103FF000002070470EB403B503AB002153F8042B27
:10400000019316F09DFE02B05DF804EB03B070471B
:104010000CB407B504AB53F8042B019316F090FED3
:1040200003B05DF804EB02B070470000436C10B5BC
:10403000044673B3038F2BB9184BC521184A19488E
:1040400026F012FCC38E00EB43035B8C0BB318F01D
:104050000DF9238F012B03D8134BCB21134AEEE725
:10406000E28E40F63F10531C9BB2092B194688BFC5
:10407000A3F10A0104EB4101498C814209D10A2BC9
:1040800004EB420228BF0023508C04EB4303588406
:1040900051842046BDE8104017F0EABFA8DC0208B2
:1040A000B1DC02085CDD0208A6DD0208B4DD02080E
:1040B00017F0A7BF10B586B002AC84E806001A4618
:1040C0000AAB214605930193099B0093089B15F0C9
:1040D00087FA06B010BD000038B518BB124B134864
:1040E0001C681349B4B12268224402606268224409
:1040F0000A60A26814440F4B00221A8000F038F8BE
:10410000054600F033F80C4B1C600C4B1D600C4B4B
:10411000188007E00B4B03600B4B0B600B4B1C68CC
:10412000002CE8D138BD00BFF01E0020F41E002096
:10413000F81E0020FC1E0020045201200C52012019
:104140000852012050930790489307905C93079082
:10415000044B1B6853F82100034B1B6803EB400022
:10416000704700BFF81E0020F41E00200220704798
:1041700000487047001F002010B5054CFFF7FAFEFD
:104180002060FFF7BBFE6060FFF77CFEA06010BD03
:10419000001F0020704710B504464FF4AE7126F0A2
:1041A00035FB204610BD10B50446D0F8580100F08C
:1041B0007EF82046BDE8104015F0F6BE10B5044666
:1041C000FFF754FB014B2046236010BD90DE020830
:1041D000704704387047704710B50446102126F028
:1041E00015FB204610BDA0F10400F5E70022C160D8
:1041F0008260044A10B502F1080420320460426073
:1042000010BD00BFDCDE020870470000034B10B594
:1042100004460360FFF711FC204610BD0CDF0208C6
:1042200010B50446FFF7F2FF4FF4D071204626F098
:10423000EDFA204610BD000010B50446FFF7F2FC71
:10424000014B2046236010BD0CDF0208FFF7F6BBD0
:10425000D0F89C310A21084A013310B50446C0F851
:104260009C3100F5BC7018F0A9FD04F59670BDE80E
:10427000104016F090BE00BF1EF20208D0F89C312C
:104280000A21084A013B10B50446C0F89C3100F5EC
:10429000BC7018F093FD04F59670BDE8104016F060
:1042A0007ABE00BF1EF2020800220260704770470B
:1042B00010B44468C068A4465DF8044B604710B46D
:1042C0000468C068A4465DF8044B604737B5012315
:1042D0000D4601AA10210446FFF7EAFF58B99DF8E0
:1042E000043001AA1021204665F302038DF8043042
:1042F0000123FFF7E4FF03B030BD37B501230D46BE
:1043000001AA10210446FFF7D3FF58B99DF80430E5
:1043100001AA1021204665F3C5038DF8043001235E
:10432000FFF7CDFF03B030BD37B501230D4601AA1D
:1043300020210446FFF7BCFF58B99DF8043001AABC
:104340002021204665F301038DF804300123FFF797
:10435000B6FF03B030BD37B501230D4601AA2021B9
:104360000446FFF7A5FF58B99DF8043001AA2021A3
:10437000204665F382038DF804300123FFF79FFF89
:1043800003B030BD13B502230C4601AA2821FFF764
:104390008FFF9DF805209DF8043003EB0223238056
:1043A00002B010BD13B502230C4601AA2A21FFF763
:1043B0007FFF9DF805209DF8043003EB0223238046
:1043C00002B010BD0A460F2108B50123FFF770FFA8
:1043D00008BD37B501230D4601AA20210446FFF789
:1043E00067FF58B99DF8043001AA2021204665F3E3
:1043F000C7138DF804300123FFF761FF03B030BD10
:104400000A46272108B50123FFF752FF08BD13B55F
:1044100001230C460DF107023021FFF749FF9DF8FB
:10442000073007EE903AFAEEEF7AC4ED007A02B068
:1044300010BD13B501230C460DF107023121FFF722
:1044400037FF9DF8073007EE903AFAEEEF7AC4EDA9
:10445000007A02B010BD37B501230C460DF10702FA
:1044600032210546FFF724FF98B9012301AA35211F
:104470002846FFF71DFF9DF804209DF8073002F045
:10448000030203EB022307EE903AFAEEEE7AC4ED54
:10449000007A03B030BD37B501230C460DF1070299
:1044A00033210546FFF704FF98B9012301AA3521FE
:1044B0002846FFF7FDFE9DF804209DF80730C2F363
:1044C000810203EB022307EE903AFAEEEE7AC4ED96
:1044D000007A03B030BD13B502230C4601AA362181
:1044E000FFF7E6FE9DF805209DF8043003EB02235C
:1044F0001BB207EE903AF8EEE77AC4ED007A02B00C
:1045000010BD13B502230C4601AA3A21FFF7D0FED5
:104510009DF805209DF8043003EB02231BB207EE43
:10452000903AF8EEE77AC4ED007A02B010BD13B508
:1045300002230C4601AA3C21FFF7BAFE9DF8052094
:104540009DF8043003EB02231BB207EE903AF8EE1D
:10455000E77AC4ED007A02B010BD13B502230C4611
:1045600001AA3E21FFF7A4FE9DF805209DF8043026
:1045700003EB02231BB207EE903AF8EEE77AC4EDA4
:10458000007A02B010BD000000B54FF4807295B003
:104590004FF0807103460C9205220F910121069283
:1045A000002201910B92139200920B48CDE9031265
:1045B000CDE90D22CDE91122102206A902924FF475
:1045C000800205926A4601F079FD003818BF01208B
:1045D00015B05DF804FB00BF0C1F002000B54FF4C0
:1045E000807395B041F2883217480C93062306A9D0
:1045F00006930023CDE90D330F930B931393CDE96D
:10460000113301F018FDE0B9022301224FF48001BB
:1046100004900D48CDE900331023CDE90232052383
:104620006A46CDE905134FF0807306A90F9341F256
:10463000883301F043FD003818BF012015B05DF844
:1046400004FB0120FAE700BF0C1F002000B54FF467
:10465000807391B04FF040720E480893EB2302A98B
:1046600002934FF4406309934FF4005305930023E2
:10467000CDE90A320A220F9307926A46CDE90D333B
:10468000CDE9003301F06AFD003818BF012011B0F8
:104690005DF804FB0C1F0020454B012145489A6B37
:1046A00042F00202F0B59A638DB09A6B0924042798
:1046B000002602F00202404D0092009A9A6942F0F0
:1046C00002029A619A6922F002029A611A6B42F020
:1046D00002021A631A6B02F002020192019A1A6B2B
:1046E00042F002021A631A6B02F002020292029A6C
:1046F0001A6B42F008021A631A6B02F00802039266
:10470000039A1A6B42F008021A631A6B02F008024D
:104710000492049A1A6B42F010021A631A6B02F0A8
:1047200010020592059A1A6B42F008021A634022A1
:104730001B6B03F008030693069B0223CDE90723B6
:104740000323CDE909130A2307A90B9300F03CFCCE
:1047500007A91848079709960B9400F035FC4FF409
:10476000006307A928460B94079300F02DFC4FF433
:10477000805307A928460B94079300F025FC07A94E
:104780000E4807970B9400F01FFC4FF4005307A945
:1047900028460B94079300F017FC32460F215C204B
:1047A00000F0D8F95C2000F007FA0DB0F0BD00BFB2
:1047B0000038024000040240000C02400010024099
:1047C000F0B5494C91B0494B2046236001F020FCE4
:1047D000054610B1012011B0F0BD01462046FFF79B
:1047E0005BFF012604234FF08077C4E901631023A7
:1047F000E36097FAA7F3B3FA83F32046013B236102
:104800004FF4A063C4E90755C4E9053501F0ACFBDA
:104810000028DFD14FF4807566230B9041F2883277
:10482000079002A90F9008950293CDE90900CDE900
:104830000D00204601F0FFFB08B10420CBE79923CF
:1048400041F2883202A92046029301F0F4FB0028CD
:10485000F3D141F28830FFF797FE0028EDD1852390
:10486000079041F2883202A9089502930B97CDE98F
:104870000900CDE90C60CDE90E00204601F0DBFB1C
:104880000028DAD141F288320DF10701204601F00B
:104890004BFD0028D1D1FFF7A1FE0028CDD1812307
:1048A000F022029392FAA2F20A219DF80730B2FA9E
:1048B00082F2204603F00F0301FA02F202A9134329
:1048C00041F288328DF8073001F0B5FB0028B4D1F1
:1048D00041F288320DF10701204601F0C9FC0028A1
:1048E0003FF479AFA9E700BF0C1F0020001000A023
:1048F0000F490020D1F8883043F47003C1F88830A4
:104900000C4B1A6842F001021A6098601A6822F093
:10491000847222F480321A60074A5A601A6822F4BC
:1049200080221A60D8604FF000638B60704700BF30
:1049300000ED00E0003802401030002470470020F5
:1049400070470000002337B58DF807300D4B1A78FB
:104950000AB901221A700324C5B2013CA8212846D5
:10496000FDF7EAF914F0FF048DF807009DF8073011
:10497000DBB203D19DF8070003B030BD512BECD161
:10498000F8E700BF5A1F002013B500240221C0B26F
:104990008DF80740FDF7D0F98DF807009DF8073036
:1049A00003F00F038DF807309DF80730052B01D970
:1049B0008DF807409DF80720034B9DF807005A70BB
:1049C00000229A7002B010BD5A1F00202DE9F74F47
:1049D0002F4C15464FF000080F46A37862788DF8EB
:1049E00007809A424DD9092B4ED803EB43035B0055
:1049F000DBB2191D03F1030B03F1060A0533C9B23B
:104A00005FFA8BFB5FFA8AFA5FFA83F8C6B2DFF8C7
:104A100084903046FDF790F98DF807009DF8073037
:104A200059463046A9F80030FDF786F98DF80700A1
:104A300051469DF807303046B9F800201B0203F4B8
:104A4000706313433B80A9F80030FDF775F98DF8CA
:104A5000070041469DF807303046A9F80030FDF7C1
:104A60006BF98DF807009DF80730B9F800201B029C
:104A700003F470631343A9F800302B80A37801334B
:104A8000A37003B0BDE8F08FC246C3464146BDE700
:104A90005A1F0020581F00200122A421C0B2FDF798
:104AA00031B90022A421C0B2FDF72CB9FFF7F9BF3C
:104AB00070470000024B1A780AB901221A70704739
:104AC0005A1F0020074A032008B5136843F4807377
:104AD000136000F02DF80020FCF7AEFFFCF750FD4E
:104AE000002008BD003C0240034A044B11681B78BB
:104AF0000B441360704700BF601F00203800002087
:104B0000014B1868704700BF601F002038B504468D
:104B1000FFF7F6FF0546631C1EBF044B1B78E41825
:104B2000FFF7EEFF431BA342FAD338BD3800002045
:104B300007490302CA6803F4E06322F4E062120446
:104B4000120C134343F0BF6343F40033CB60704750
:104B500000ED00E0164B30B5DC68C4F30224C4F16C
:104B60000703251D042B28BF0423062D4FF0FF3516
:104B70008CBF033C002405FA03F3002805FA04F572
:104B800021EA030322EA050203FA04F343EA0203DB
:104B90004FEA0313DBB206DB00F1604000F5614031
:104BA00080F8003330BD00F00F00024A1354F9E7DB
:104BB00000ED00E014ED00E0002807DB41090123CF
:104BC00000F01F00024A834042F82130704700BFC6
:104BD00000E100E000280CDB4309012200F01F0087
:104BE00004492033824041F82320BFF34F8FBFF3A5
:104BF0006F8F704700E100E0BFF35F8F044B5A6A8C
:104C000022F480325A620022C3F89420704700BF19
:104C100000ED00E0064B40F00100C3F894005A6A32
:104C200042F480325A62BFF34F8FBFF36F8F7047E9
:104C300000ED00E04378144A10B5C2F898300178CE
:104C4000E9B14368C2F89C30C37A047B1B0643EA8F
:104C500004730B43817A43EAC143417B43EA8143B6
:104C6000817B43EA4143C17B43EA0143417A43EA02
:104C70000123017A43EA4103C2F8A03010BDC2F813
:104C80009C10C2F8A010F9E700ED00E010B5044652
:104C900008B9012010BD437F03F0FF0213B902776A
:104CA000FCF78CFC022363772379E3B92368134A6A
:104CB0005A619A6822F018029A6062792368D2B920
:104CC0004FF0FF321A6100209A68616922F0600299
:104CD0000A43A1699A609A6822F080020A439A60A6
:104CE00001236377D6E7D4E90212204600F008F8E2
:104CF0000028E2D0CDE72269E4E700BFB71DC10478
:104D00001F2310B5013B1CD321FA03F4E407F9D5A6
:104D1000102A12D004D83AB1082A10D001200BE092
:104D2000182AFBD1062BF9D800684161836823F06B
:104D3000180313438360002010BD072BF3E70F2BEC
:104D4000F1E7002AEAD1EFE770B50446866DFFF778
:104D5000D7FE054694F83530022B06D0802301207B
:104D60006365002384F8343070BD23681A6822F02C
:104D700016021A605A6922F080025A61226C0AB93E
:104D8000A26C1AB11A6822F008021A601A6822F09E
:104D900001021A6023681B6813F0010308D1E16D5A
:104DA0003F2218468A40B260012284F83520D8E7B5
:104DB000FFF7A6FE401B0528ECD9202303206365DE
:104DC00084F83500CDE710B5044630B390F839309B
:104DD00003F0FF021BB980F83820FCF705FC2268BD
:104DE00002236168002084F83930136823F44033CB
:104DF0000B43A1681360536B23F007030B43E16877
:104E00005363136C23F47F5323F03F030B4313646A
:104E10000123E06384F8393010BD0120FCE77047BE
:104E20007047036870B55E6804461D68F20714D5C4
:104E3000E90512D51A6822F480721A60C26B42F03A
:104E40000102C26301229A60042380F839300023F2
:104E500080F83830436903B19847B20616D5AB04E1
:104E600014D523681A6822F400521A6020229A602E
:104E7000E36B43F00203E363042384F83930002337
:104E800084F8383063690BB120469847300716D54F
:104E9000290514D523681A6822F400621A600822D2
:104EA0009A60E36B43F00403E363042384F839302E
:104EB000002384F8383063690BB1204698477207A5
:104EC0000BD56B0509D5236820461A6822F4806249
:104ED0001A6004229A60FFF7A2FFB00714D5A90553
:104EE00012D523681A6822F400721A6002229A60AE
:104EF000E36BE363012384F83930002384F838300E
:104F000023690BB120469847F20613D5EB0411D55F
:104F1000236820461A6822F480521A6010229A6090
:104F2000E36BE363012384F83930002384F83830DD
:104F3000FFF776FF70BD0000F0B590F83830012B18
:104F40004FF002032BD080F83930012200EB01131F
:104F50001C4F80F838200E015D6AD3E9074244EA0D
:104F60000242093C012C96BF05F07F4342EA0562EC
:104F70001A430368A9B9596A012C01EA070142EAF8
:104F800001025A6282699A6103D8426A22F07F4222
:104F90009A62012380F83930002380F838301846AF
:104FA000F0BDD969012C01EA070142EA0102DA6188
:104FB00000EB060292691A61EBD825F07F451D626D
:104FC000E7E700BFF0FFFC002DE9F74F0023DFF813
:104FD000B8916B4A01240D689C4004EA050CAC436F
:104FE00040F0B4804D684FEA4308032605F00304FF
:104FF00006FA08F6671EF643012F34D8876807EAD9
:10500000060ECF6807FA08F747EA0E078760476879
:1050100027EA0C0EC5F300179F4047EA0E074760CA
:10502000C768022C07EA060E8F6807FA08F747EAF6
:105030000E07C76019D14FEAD30A03F0070B4FF0F0
:105040000F0E00EB8A0A4FEA8B0BDAF820700EFA8B
:105050000BFE27EA0E0E0F6907FA0BF747EA0E0759
:10506000CAF8207001E0032CDAD1076804FA08F4CA
:1050700015F4403F07EA060744EA0704046065D0D8
:10508000D9F8444023F0030603F0030744F48044B6
:1050900006F18046BF00C9F8444006F59C36D9F8B1
:1050A000444004F480440194019C0F24D6F808E0A5
:1050B000BC402EEA040E334CA0424ED004F580646E
:1050C000A0424CD004F58064A0424AD004F580642C
:1050D000A04248D004F58064A04246D004F5806424
:1050E000A04244D004F58064A04242D004F580641C
:1050F000A04240D004F58064A0423ED004F5806414
:10510000A0420CBF09240A24BC40EF0244EA0E046A
:10511000B4606FEA0C06946854BF34404CEA04044F
:10512000AF029460D46854BF34404CEA0404AF0327
:10513000D460546854BF34404CEA0404ED03546016
:10514000146854BF34404CEA040414600133102B3B
:105150007FF440AF03B0BDE8F08F0024D4E7012412
:10516000D2E70224D0E70324CEE70424CCE70524C9
:10517000CAE70624C8E70724C6E70824C4E700BF37
:10518000003C014000000240003802402DE9F04F91
:105190000022494CDFF82891DFF828A1DFF828B178
:1051A000012303FA02FE3EEA01050EEA01076CD173
:1051B00022F0030502F0030C0F26404B05F1804559
:1051C0004FEA8C0C984205F59C3506FA0CF6D5F89A
:1051D000088006EA08085DD003F5806398425BD03A
:1051E00003F58063984259D003F58063984257D005
:1051F00003F58063984255D0484555D0504555D069
:10520000584555D003F58053984253D003F5806339
:1052100098420CBF09230A2303FA0CF3434513D128
:10522000236823EA07032360636823EA07036360B4
:10523000E36823EA0703E360A36823EA0703A360A4
:10524000AB6823EA0603AB6056000323056802F04F
:10525000070CB3400F274FEA8C0C25EA030507FA29
:105260000CF70560D50800EB85052E6A26EA0706CF
:105270002E62C56825EA0305C560456825EA0E0566
:105280004560856825EA030383600132102A87D1CF
:10529000BDE8F08F0023BFE70123BDE70223BBE792
:1052A0000323B9E70423B7E70523B5E70623B3E7EC
:1052B0000723B1E70823AFE7003C014000000240AC
:1052C0000014024000180240001C02400369194209
:1052D00014BF0120002070470AB1816170470904A2
:1052E000FBE7436901EA030221EA030141EA0241C3
:1052F0008161704703689A69910701D500229A621B
:105300009A69D20703D49A6942F001029A61704700
:1053100030B5039DC1F3090104682B43606843EA7B
:105320000243054A0B4342EA555223F0004320EA68
:1053300002000343636030BDFF63FF0303682DE990
:10534000F0419C6905460F46164614F010046FD0D4
:1053500000241022A046DA612B689A69900661D475
:10536000B8F1000F35D044F0040401202E68B36971
:10537000D90505D54FF4807244F001040120F26193
:105380005A0505D54FF4806244F008040120F2610B
:105390009B054FD54FF4007344F00204F361284697
:1053A000FFF7A8FF7368012023F0FF7323F48B330A
:1053B00023F4FF7323F0010373606B6C23436B646E
:1053C000202385F84130002385F8423085F84030AD
:1053D00032E07A1CC1D0FFF793FB801BB84201D8A2
:1053E000002FB9D12B68596895F842209869D2B23C
:1053F00000040AD5490408D4202A06D05A6842F489
:1054000080425A60FFF77CFB06462B689B699B062F
:10541000A2D4FFF775FB801B1928F6D920244FF082
:10542000010899E7B8F1000F9DD12022DA619AE7CF
:1054300020469BE70028B2D1BDE8F08170B5044654
:105440000D46164623689B699B0701D5002070BD59
:10545000324629462046FFF771FFA0B96A1CF1D0F9
:10546000FFF74EFB801BA84201D8002DEAD1636CE8
:1054700043F020036364202384F84130002384F840
:10548000423084F840300120E1E72DE9F041069FE9
:105490000446884616461D462268936938EA030387
:1054A0000CBF01230023B34201D0002015E06B1C88
:1054B000F3D0FFF725FBC01BA84201D8002DEBD18C
:1054C000636C012043F020036364202384F841309F
:1054D000002384F8423084F84030BDE8F08170B594
:1054E00004460D46164623689B699B0601D500209D
:1054F00070BD324629462046FFF720FF90B9FFF7DE
:10550000FFFA801BA84201D8002DECD1636C43F058
:1055100020036364202384F84130002384F8423060
:1055200084F840300120E3E710B5044600284AD053
:1055300090F8413003F0FF021BB980F84020FCF7DF
:1055400073F8242384F8413023681A6822F001029A
:105550001A60626822F070621A619A6822F400424E
:105560009A60D4E90221012924D142F400429A60D0
:105570005A68002042F0007242F400425A60DA6831
:1055800022F40042DA60D4E904210A43A16942EA24
:105590000122DA60D4E907210A431A601A6842F04E
:1055A00001021A602023606484F84130206384F88B
:1055B000420010BD42F4044202299A60D8D14FF44F
:1055C00000625A60D4E70120F3E710B5044698B1B1
:1055D0000268242380F84130136823F0010313602C
:1055E000FCF766F80020606484F8400084F841000D
:1055F000206384F8420010BD0120FCE72DE9F74F3D
:10560000994690F8413004460F46202B1646BDF8C7
:1056100034A0DDF8388040F0C6800C9B13B1BAF19D
:10562000000F06D14FF400736364012003B0BDE89E
:10563000F08F90F84030012B00F0B5804FF0010B57
:1056400080F840B0FFF75CFA1923054600905A46EF
:105650004FF400412046FFF718FF0028E5D1212331
:105660005FFA89F23946606384F84130402384F858
:1056700042300C9B6064204663624C4BA4F82AA025
:1056800000934FF08073FFF743FE2A4641462046C1
:10569000FFF7D4FE18BBB9F1010F236815D1F6B29C
:1056A0000022802120469E6243460095FFF7EDFED2
:1056B000A8B9638D9BB2FF2B15D8628D4FF0007394
:1056C000009092B22285D2B212E0320A41462046C0
:1056D0009A622A46FFF7B2FE08B92368DFE7002383
:1056E00084F84030A1E7FF224FF0807300902285BC
:1056F00039462046FFF70CFE2A4641462046FFF772
:105700009DFE002891D1636A226813F8011B916203
:105710006362638D228D013B013A9BB292B2638535
:10572000638D22859BB2B3B1AAB94346802120463E
:105730000095FFF7AAFE00287FF477AF638D9BB238
:10574000FF2B28D9FF224FF0807300902285394625
:105750002046FFF7DDFD638D9BB2002BCCD12A469E
:1057600041462046FFF7BBFE00287FF45EAF23686A
:105770002021D9615A6822F0FF7222F48B3222F480
:10578000FF7222F001025A6084F8411084F8400050
:1057900084F842004AE7628D4FF00073009092B2A5
:1057A0002285D2B2D3E7022040E700BF002000806C
:1057B0002DE9F74F994690F8413004460F46202BCB
:1057C0001646BDF834A0DDF8388040F0C9800C9B47
:1057D00013B1BAF1000F06D14FF4007363640120D6
:1057E00003B0BDE8F08F90F84030012B00F0B88096
:1057F0004FF0010B80F840B0FFF782F919230090B9
:1058000005465A464FF400412046FFF73EFE034648
:105810000028E4D122223946606384F841204022E6
:1058200084F842200C9A6064204662624D4AA4F8D3
:105830002AA000925FFA89F2FFF76AFD2A464146E4
:105840002046FFF7FBFD20BBB9F1010F236816D1FD
:10585000F6B20022402120469E6243460095FFF7A3
:1058600014FEB0B9638D9BB2FF2B3F4B15D8628DF0
:1058700000934FF0007392B22285D2B212E0320A46
:10588000414620469A622A46FFF7D8FD08B92368A8
:10589000DEE7002384F84030A1E7FF2200934FF0B9
:1058A0008073228539462046FFF732FD43460022A9
:1058B000042120460095FFF7E8FD00288FD12368DA
:1058C0005A6A636A1A70636A228D0133013A63620D
:1058D000638D92B2013B22859BB26385638D9BB23F
:1058E000B3B1AAB94346802120460095FFF7CDFD0C
:1058F00000287FF474AF638D9BB2FF2B28D9FF2261
:105900004FF080730090228539462046FFF700FD56
:10591000638D9BB2002BC9D12A4641462046FFF732
:10592000DEFD00287FF45BAF23682021D9615A682F
:1059300022F0FF7222F48B3222F4FF7222F0010275
:105940005A6084F8411084F8400084F8420047E728
:10595000628D4FF00073009092B22285D2B2D3E7ED
:1059600002203DE7002000800024008010B590F860
:105970004130202BDCB21DD190F84030012B19D0E2
:10598000242380F8413003681A6822F001021A606B
:105990001A6822F480521A601A68114319601A6852
:1059A00042F001021A60002380F8414080F8403044
:1059B000184610BD0220FCE710B590F84130202BAE
:1059C000DCB21CD190F84030012B18D0242380F891
:1059D000413003681A6822F001021A601A6822F442
:1059E000706242EA012119601A6842F001021A60ED
:1059F000002380F8414080F84030184610BD022056
:105A0000FCE70000D2010068D1F800C0843283189E
:105A10002DE9F043C6680CF101075D684FF0000EF8
:105A20004C68C6F30B4605F47045D1F8189026442F
:105A30005D60C568C5F30B453D4445EA06455D60BC
:105A4000C668CD68C6F30A062E449D6805F4704505
:105A50009D608D68C7680135C7F30A073D4445EA74
:105A600006450E699D601D6925F007051D611E61D3
:105A70009D6991F8327091F83180C3F818E091F87F
:105A8000305045EA096545EA082545EA07459D6124
:105A90005D6925F0FF055D614D695D61DD6925F496
:105AA000E06525F00705DD61D1E907573D43DD617C
:105AB0009D6A4D6AC3F828E09D62FEB1013E062E44
:105AC0001ED8104DAD5DDE6AA4EB0C0406F0E02696
:105AD0006C43DE6203348E6AC96A6E4344EA06444C
